{"abi":[{"inputs":[{"internalType":"string","name":"initialMessage","type":"string"},{"internalType":"string","name":"initialImage","type":"string"}],"stateMutability":"nonpayable","type":"constructor"},{"anonymous":false,"inputs":[{"indexed":false,"internalType":"string","name":"message","type":"string"},{"indexed":false,"internalType":"string","name":"image","type":"string"},{"indexed":false,"internalType":"address","name":"creator","type":"address"}],"name":"NewBillboard","type":"event"},{"inputs":[],"name":"creator","outputs":[{"internalType":"address","name":"","type":"address"}],"stateMutability":"view","type":"function"},{"inputs":[],"name":"getBillboard","outputs":[{"internalType":"string","name":"","type":"string"},{"internalType":"string","name":"","type":"string"},{"internalType":"address","name":"","type":"address"}],"stateMutability":"view","type":"function"},{"inputs":[],"name":"getHistoryLength","outputs":[{"internalType":"uint256","name":"","type":"uint256"}],"stateMutability":"view","type":"function"},{"inputs":[{"internalType":"uint256","name":"","type":"uint256"}],"name":"history","outputs":[{"internalType":"string","name":"message","type":"string"},{"internalType":"string","name":"image","type":"string"},{"internalType":"address","name":"creator","type":"address"}],"stateMutability":"view","type":"function"},{"inputs":[],"name":"image","outputs":[{"internalType":"string","name":"","type":"string"}],"stateMutability":"view","type":"function"},{"inputs":[],"name":"message","outputs":[{"internalType":"string","name":"","type":"string"}],"stateMutability":"view","type":"function"},{"inputs":[{"internalType":"string","name":"newMessage","type":"string"},{"internalType":"string","name":"newImage","type":"string"}],"name":"setBillboard","outputs":[],"stateMutability":"nonpayable","type":"function"}],"devdoc":{"kind":"dev","methods":{},"version":1},"evm":{"assembly":"    /* \"InternetBillboard.sol\":64:1549  contract InternetBillboard {\r... */\n  mstore(0x40, 0x80)\n    /* \"InternetBillboard.sol\":401:850  constructor(string memory initialMessage, string memory initialImage) {\r... */\n  callvalue\n  dup1\n  iszero\n  tag_1\n  jumpi\n  0x00\n  dup1\n  revert\ntag_1:\n  pop\n  mload(0x40)\n  sub(codesize, bytecodeSize)\n  dup1\n  bytecodeSize\n  dup4\n  codecopy\n  dup2\n  dup2\n  add\n  0x40\n  mstore\n  dup2\n  add\n  swap1\n  tag_2\n  swap2\n  swap1\n  tag_3\n  jump\t// in\ntag_2:\n    /* \"InternetBillboard.sol\":492:506  initialMessage */\n  dup2\n    /* \"InternetBillboard.sol\":482:489  message */\n  0x00\n    /* \"InternetBillboard.sol\":482:506  message = initialMessage */\n  swap1\n  dup1\n  mload\n  swap1\n  0x20\n  add\n  swap1\n  tag_6\n  swap3\n  swap2\n  swap1\n  tag_7\n  jump\t// in\ntag_6:\n  pop\n    /* \"InternetBillboard.sol\":525:537  initialImage */\n  dup1\n    /* \"InternetBillboard.sol\":517:522  image */\n  0x01\n    /* \"InternetBillboard.sol\":517:537  image = initialImage */\n  swap1\n  dup1\n  mload\n  swap1\n  0x20\n  add\n  swap1\n  tag_8\n  swap3\n  swap2\n  swap1\n  tag_7\n  jump\t// in\ntag_8:\n  pop\n    /* \"InternetBillboard.sol\":558:568  msg.sender */\n  caller\n    /* \"InternetBillboard.sol\":548:555  creator */\n  0x02\n  0x00\n    /* \"InternetBillboard.sol\":548:568  creator = msg.sender */\n  0x0100\n  exp\n  dup2\n  sload\n  dup2\n  0xffffffffffffffffffffffffffffffffffffffff\n  mul\n  not\n  and\n  swap1\n  dup4\n  0xffffffffffffffffffffffffffffffffffffffff\n  and\n  mul\n  or\n  swap1\n  sstore\n  pop\n    /* \"InternetBillboard.sol\":581:607  Billboard memory billboard */\n  0x00\n    /* \"InternetBillboard.sol\":610:738  Billboard({\r... */\n  mload(0x40)\n  dup1\n  0x60\n  add\n  0x40\n  mstore\n  dup1\n    /* \"InternetBillboard.sol\":644:658  initialMessage */\n  dup5\n    /* \"InternetBillboard.sol\":610:738  Billboard({\r... */\n  dup2\n  mstore\n  0x20\n  add\n    /* \"InternetBillboard.sol\":680:692  initialImage */\n  dup4\n    /* \"InternetBillboard.sol\":610:738  Billboard({\r... */\n  dup2\n  mstore\n  0x20\n  add\n    /* \"InternetBillboard.sol\":716:726  msg.sender */\n  caller\n    /* \"InternetBillboard.sol\":610:738  Billboard({\r... */\n  0xffffffffffffffffffffffffffffffffffffffff\n  and\n  dup2\n  mstore\n  pop\n    /* \"InternetBillboard.sol\":581:738  Billboard memory billboard = Billboard({\r... */\n  swap1\n  pop\n    /* \"InternetBillboard.sol\":749:756  history */\n  0x03\n    /* \"InternetBillboard.sol\":762:771  billboard */\n  dup2\n    /* \"InternetBillboard.sol\":749:772  history.push(billboard) */\n  swap1\n  dup1\n  0x01\n  dup2\n  sload\n  add\n  dup1\n  dup3\n  sstore\n  dup1\n  swap2\n  pop\n  pop\n  0x01\n  swap1\n  sub\n  swap1\n  0x00\n  mstore\n  keccak256(0x00, 0x20)\n  swap1\n  0x03\n  mul\n  add\n  0x00\n  swap1\n  swap2\n  swap1\n  swap2\n  swap1\n  swap2\n  pop\n  0x00\n  dup3\n  add\n  mload\n  dup2\n  0x00\n  add\n  swap1\n  dup1\n  mload\n  swap1\n  0x20\n  add\n  swap1\n  tag_10\n  swap3\n  swap2\n  swap1\n  tag_7\n  jump\t// in\ntag_10:\n  pop\n  0x20\n  dup3\n  add\n  mload\n  dup2\n  0x01\n  add\n  swap1\n  dup1\n  mload\n  swap1\n  0x20\n  add\n  swap1\n  tag_11\n  swap3\n  swap2\n  swap1\n  tag_7\n  jump\t// in\ntag_11:\n  pop\n  0x40\n  dup3\n  add\n  mload\n  dup2\n  0x02\n  add\n  exp(0x0100, 0x00)\n  dup2\n  sload\n  dup2\n  0xffffffffffffffffffffffffffffffffffffffff\n  mul\n  not\n  and\n  swap1\n  dup4\n  0xffffffffffffffffffffffffffffffffffffffff\n  and\n  mul\n  or\n  swap1\n  sstore\n  pop\n  pop\n  pop\n    /* \"InternetBillboard.sol\":788:842  NewBillboard(initialMessage, initialImage, msg.sender) */\n  0x74235dd15b991da7e3c5803f71b75cfb8aded023d34805f3a7e16961793ef823\n    /* \"InternetBillboard.sol\":801:815  initialMessage */\n  dup4\n    /* \"InternetBillboard.sol\":817:829  initialImage */\n  dup4\n    /* \"InternetBillboard.sol\":831:841  msg.sender */\n  caller\n    /* \"InternetBillboard.sol\":788:842  NewBillboard(initialMessage, initialImage, msg.sender) */\n  mload(0x40)\n  tag_12\n  swap4\n  swap3\n  swap2\n  swap1\n  tag_13\n  jump\t// in\ntag_12:\n  mload(0x40)\n  dup1\n  swap2\n  sub\n  swap1\n  log1\n    /* \"InternetBillboard.sol\":471:850  {\r... */\n  pop\n    /* \"InternetBillboard.sol\":401:850  constructor(string memory initialMessage, string memory initialImage) {\r... */\n  pop\n  pop\n    /* \"InternetBillboard.sol\":64:1549  contract InternetBillboard {\r... */\n  jump(tag_14)\ntag_7:\n  dup3\n  dup1\n  sload\n  tag_15\n  swap1\n  tag_16\n  jump\t// in\ntag_15:\n  swap1\n  0x00\n  mstore\n  keccak256(0x00, 0x20)\n  swap1\n  0x1f\n  add\n  0x20\n  swap1\n  div\n  dup2\n  add\n  swap3\n  dup3\n  tag_18\n  jumpi\n  0x00\n  dup6\n  sstore\n  jump(tag_17)\ntag_18:\n  dup3\n  0x1f\n  lt\n  tag_19\n  jumpi\n  dup1\n  mload\n  not(0xff)\n  and\n  dup4\n  dup1\n  add\n  or\n  dup6\n  sstore\n  jump(tag_17)\ntag_19:\n  dup3\n  dup1\n  add\n  0x01\n  add\n  dup6\n  sstore\n  dup3\n  iszero\n  tag_17\n  jumpi\n  swap2\n  dup3\n  add\ntag_20:\n  dup3\n  dup2\n  gt\n  iszero\n  tag_21\n  jumpi\n  dup3\n  mload\n  dup3\n  sstore\n  swap2\n  0x20\n  add\n  swap2\n  swap1\n  0x01\n  add\n  swap1\n  jump(tag_20)\ntag_21:\ntag_17:\n  pop\n  swap1\n  pop\n  tag_22\n  swap2\n  swap1\n  tag_23\n  jump\t// in\ntag_22:\n  pop\n  swap1\n  jump\t// out\ntag_23:\ntag_24:\n  dup1\n  dup3\n  gt\n  iszero\n  tag_25\n  jumpi\n  0x00\n  dup2\n  0x00\n  swap1\n  sstore\n  pop\n  0x01\n  add\n  jump(tag_24)\ntag_25:\n  pop\n  swap1\n  jump\t// out\n    /* \"#utility.yul\":7:428   */\ntag_27:\n    /* \"#utility.yul\":96:101   */\n  0x00\n    /* \"#utility.yul\":121:187   */\n  tag_29\n    /* \"#utility.yul\":137:186   */\n  tag_30\n    /* \"#utility.yul\":179:185   */\n  dup5\n    /* \"#utility.yul\":137:186   */\n  tag_31\n  jump\t// in\ntag_30:\n    /* \"#utility.yul\":121:187   */\n  tag_32\n  jump\t// in\ntag_29:\n    /* \"#utility.yul\":112:187   */\n  swap1\n  pop\n    /* \"#utility.yul\":210:216   */\n  dup3\n    /* \"#utility.yul\":203:208   */\n  dup2\n    /* \"#utility.yul\":196:217   */\n  mstore\n    /* \"#utility.yul\":248:252   */\n  0x20\n    /* \"#utility.yul\":241:246   */\n  dup2\n    /* \"#utility.yul\":237:253   */\n  add\n    /* \"#utility.yul\":286:289   */\n  dup5\n    /* \"#utility.yul\":277:283   */\n  dup5\n    /* \"#utility.yul\":272:275   */\n  dup5\n    /* \"#utility.yul\":268:284   */\n  add\n    /* \"#utility.yul\":265:290   */\n  gt\n    /* \"#utility.yul\":262:374   */\n  iszero\n  tag_33\n  jumpi\n    /* \"#utility.yul\":293:372   */\n  tag_34\n  tag_35\n  jump\t// in\ntag_34:\n    /* \"#utility.yul\":262:374   */\ntag_33:\n    /* \"#utility.yul\":383:422   */\n  tag_36\n    /* \"#utility.yul\":415:421   */\n  dup5\n    /* \"#utility.yul\":410:413   */\n  dup3\n    /* \"#utility.yul\":405:408   */\n  dup6\n    /* \"#utility.yul\":383:422   */\n  tag_37\n  jump\t// in\ntag_36:\n    /* \"#utility.yul\":102:428   */\n  pop\n    /* \"#utility.yul\":7:428   */\n  swap4\n  swap3\n  pop\n  pop\n  pop\n  jump\t// out\n    /* \"#utility.yul\":448:803   */\ntag_38:\n    /* \"#utility.yul\":515:520   */\n  0x00\n    /* \"#utility.yul\":564:567   */\n  dup3\n    /* \"#utility.yul\":557:561   */\n  0x1f\n    /* \"#utility.yul\":549:555   */\n  dup4\n    /* \"#utility.yul\":545:562   */\n  add\n    /* \"#utility.yul\":541:568   */\n  slt\n    /* \"#utility.yul\":531:653   */\n  tag_40\n  jumpi\n    /* \"#utility.yul\":572:651   */\n  tag_41\n  tag_42\n  jump\t// in\ntag_41:\n    /* \"#utility.yul\":531:653   */\ntag_40:\n    /* \"#utility.yul\":682:688   */\n  dup2\n    /* \"#utility.yul\":676:689   */\n  mload\n    /* \"#utility.yul\":707:797   */\n  tag_43\n    /* \"#utility.yul\":793:796   */\n  dup5\n    /* \"#utility.yul\":785:791   */\n  dup3\n    /* \"#utility.yul\":778:782   */\n  0x20\n    /* \"#utility.yul\":770:776   */\n  dup7\n    /* \"#utility.yul\":766:783   */\n  add\n    /* \"#utility.yul\":707:797   */\n  tag_27\n  jump\t// in\ntag_43:\n    /* \"#utility.yul\":698:797   */\n  swap2\n  pop\n    /* \"#utility.yul\":521:803   */\n  pop\n    /* \"#utility.yul\":448:803   */\n  swap3\n  swap2\n  pop\n  pop\n  jump\t// out\n    /* \"#utility.yul\":809:1662   */\ntag_3:\n    /* \"#utility.yul\":908:914   */\n  0x00\n    /* \"#utility.yul\":916:922   */\n  dup1\n    /* \"#utility.yul\":965:967   */\n  0x40\n    /* \"#utility.yul\":953:962   */\n  dup4\n    /* \"#utility.yul\":944:951   */\n  dup6\n    /* \"#utility.yul\":940:963   */\n  sub\n    /* \"#utility.yul\":936:968   */\n  slt\n    /* \"#utility.yul\":933:1052   */\n  iszero\n  tag_45\n  jumpi\n    /* \"#utility.yul\":971:1050   */\n  tag_46\n  tag_47\n  jump\t// in\ntag_46:\n    /* \"#utility.yul\":933:1052   */\ntag_45:\n    /* \"#utility.yul\":1112:1113   */\n  0x00\n    /* \"#utility.yul\":1101:1110   */\n  dup4\n    /* \"#utility.yul\":1097:1114   */\n  add\n    /* \"#utility.yul\":1091:1115   */\n  mload\n    /* \"#utility.yul\":1142:1160   */\n  0xffffffffffffffff\n    /* \"#utility.yul\":1134:1140   */\n  dup2\n    /* \"#utility.yul\":1131:1161   */\n  gt\n    /* \"#utility.yul\":1128:1245   */\n  iszero\n  tag_48\n  jumpi\n    /* \"#utility.yul\":1164:1243   */\n  tag_49\n  tag_50\n  jump\t// in\ntag_49:\n    /* \"#utility.yul\":1128:1245   */\ntag_48:\n    /* \"#utility.yul\":1269:1343   */\n  tag_51\n    /* \"#utility.yul\":1335:1342   */\n  dup6\n    /* \"#utility.yul\":1326:1332   */\n  dup3\n    /* \"#utility.yul\":1315:1324   */\n  dup7\n    /* \"#utility.yul\":1311:1333   */\n  add\n    /* \"#utility.yul\":1269:1343   */\n  tag_38\n  jump\t// in\ntag_51:\n    /* \"#utility.yul\":1259:1343   */\n  swap3\n  pop\n    /* \"#utility.yul\":1062:1353   */\n  pop\n    /* \"#utility.yul\":1413:1415   */\n  0x20\n    /* \"#utility.yul\":1402:1411   */\n  dup4\n    /* \"#utility.yul\":1398:1416   */\n  add\n    /* \"#utility.yul\":1392:1417   */\n  mload\n    /* \"#utility.yul\":1444:1462   */\n  0xffffffffffffffff\n    /* \"#utility.yul\":1436:1442   */\n  dup2\n    /* \"#utility.yul\":1433:1463   */\n  gt\n    /* \"#utility.yul\":1430:1547   */\n  iszero\n  tag_52\n  jumpi\n    /* \"#utility.yul\":1466:1545   */\n  tag_53\n  tag_50\n  jump\t// in\ntag_53:\n    /* \"#utility.yul\":1430:1547   */\ntag_52:\n    /* \"#utility.yul\":1571:1645   */\n  tag_54\n    /* \"#utility.yul\":1637:1644   */\n  dup6\n    /* \"#utility.yul\":1628:1634   */\n  dup3\n    /* \"#utility.yul\":1617:1626   */\n  dup7\n    /* \"#utility.yul\":1613:1635   */\n  add\n    /* \"#utility.yul\":1571:1645   */\n  tag_38\n  jump\t// in\ntag_54:\n    /* \"#utility.yul\":1561:1645   */\n  swap2\n  pop\n    /* \"#utility.yul\":1363:1655   */\n  pop\n    /* \"#utility.yul\":809:1662   */\n  swap3\n  pop\n  swap3\n  swap1\n  pop\n  jump\t// out\n    /* \"#utility.yul\":1668:1786   */\ntag_55:\n    /* \"#utility.yul\":1755:1779   */\n  tag_57\n    /* \"#utility.yul\":1773:1778   */\n  dup2\n    /* \"#utility.yul\":1755:1779   */\n  tag_58\n  jump\t// in\ntag_57:\n    /* \"#utility.yul\":1750:1753   */\n  dup3\n    /* \"#utility.yul\":1743:1780   */\n  mstore\n    /* \"#utility.yul\":1668:1786   */\n  pop\n  pop\n  jump\t// out\n    /* \"#utility.yul\":1792:2156   */\ntag_59:\n    /* \"#utility.yul\":1880:1883   */\n  0x00\n    /* \"#utility.yul\":1908:1947   */\n  tag_61\n    /* \"#utility.yul\":1941:1946   */\n  dup3\n    /* \"#utility.yul\":1908:1947   */\n  tag_62\n  jump\t// in\ntag_61:\n    /* \"#utility.yul\":1963:2034   */\n  tag_63\n    /* \"#utility.yul\":2027:2033   */\n  dup2\n    /* \"#utility.yul\":2022:2025   */\n  dup6\n    /* \"#utility.yul\":1963:2034   */\n  tag_64\n  jump\t// in\ntag_63:\n    /* \"#utility.yul\":1956:2034   */\n  swap4\n  pop\n    /* \"#utility.yul\":2043:2095   */\n  tag_65\n    /* \"#utility.yul\":2088:2094   */\n  dup2\n    /* \"#utility.yul\":2083:2086   */\n  dup6\n    /* \"#utility.yul\":2076:2080   */\n  0x20\n    /* \"#utility.yul\":2069:2074   */\n  dup7\n    /* \"#utility.yul\":2065:2081   */\n  add\n    /* \"#utility.yul\":2043:2095   */\n  tag_37\n  jump\t// in\ntag_65:\n    /* \"#utility.yul\":2120:2149   */\n  tag_66\n    /* \"#utility.yul\":2142:2148   */\n  dup2\n    /* \"#utility.yul\":2120:2149   */\n  tag_67\n  jump\t// in\ntag_66:\n    /* \"#utility.yul\":2115:2118   */\n  dup5\n    /* \"#utility.yul\":2111:2150   */\n  add\n    /* \"#utility.yul\":2104:2150   */\n  swap2\n  pop\n    /* \"#utility.yul\":1884:2156   */\n  pop\n    /* \"#utility.yul\":1792:2156   */\n  swap3\n  swap2\n  pop\n  pop\n  jump\t// out\n    /* \"#utility.yul\":2162:2786   */\ntag_13:\n    /* \"#utility.yul\":2351:2355   */\n  0x00\n    /* \"#utility.yul\":2389:2391   */\n  0x60\n    /* \"#utility.yul\":2378:2387   */\n  dup3\n    /* \"#utility.yul\":2374:2392   */\n  add\n    /* \"#utility.yul\":2366:2392   */\n  swap1\n  pop\n    /* \"#utility.yul\":2438:2447   */\n  dup2\n    /* \"#utility.yul\":2432:2436   */\n  dup2\n    /* \"#utility.yul\":2428:2448   */\n  sub\n    /* \"#utility.yul\":2424:2425   */\n  0x00\n    /* \"#utility.yul\":2413:2422   */\n  dup4\n    /* \"#utility.yul\":2409:2426   */\n  add\n    /* \"#utility.yul\":2402:2449   */\n  mstore\n    /* \"#utility.yul\":2466:2544   */\n  tag_69\n    /* \"#utility.yul\":2539:2543   */\n  dup2\n    /* \"#utility.yul\":2530:2536   */\n  dup7\n    /* \"#utility.yul\":2466:2544   */\n  tag_59\n  jump\t// in\ntag_69:\n    /* \"#utility.yul\":2458:2544   */\n  swap1\n  pop\n    /* \"#utility.yul\":2591:2600   */\n  dup2\n    /* \"#utility.yul\":2585:2589   */\n  dup2\n    /* \"#utility.yul\":2581:2601   */\n  sub\n    /* \"#utility.yul\":2576:2578   */\n  0x20\n    /* \"#utility.yul\":2565:2574   */\n  dup4\n    /* \"#utility.yul\":2561:2579   */\n  add\n    /* \"#utility.yul\":2554:2602   */\n  mstore\n    /* \"#utility.yul\":2619:2697   */\n  tag_70\n    /* \"#utility.yul\":2692:2696   */\n  dup2\n    /* \"#utility.yul\":2683:2689   */\n  dup6\n    /* \"#utility.yul\":2619:2697   */\n  tag_59\n  jump\t// in\ntag_70:\n    /* \"#utility.yul\":2611:2697   */\n  swap1\n  pop\n    /* \"#utility.yul\":2707:2779   */\n  tag_71\n    /* \"#utility.yul\":2775:2777   */\n  0x40\n    /* \"#utility.yul\":2764:2773   */\n  dup4\n    /* \"#utility.yul\":2760:2778   */\n  add\n    /* \"#utility.yul\":2751:2757   */\n  dup5\n    /* \"#utility.yul\":2707:2779   */\n  tag_55\n  jump\t// in\ntag_71:\n    /* \"#utility.yul\":2162:2786   */\n  swap5\n  swap4\n  pop\n  pop\n  pop\n  pop\n  jump\t// out\n    /* \"#utility.yul\":2792:2921   */\ntag_32:\n    /* \"#utility.yul\":2826:2832   */\n  0x00\n    /* \"#utility.yul\":2853:2873   */\n  tag_73\n  tag_74\n  jump\t// in\ntag_73:\n    /* \"#utility.yul\":2843:2873   */\n  swap1\n  pop\n    /* \"#utility.yul\":2882:2915   */\n  tag_75\n    /* \"#utility.yul\":2910:2914   */\n  dup3\n    /* \"#utility.yul\":2902:2908   */\n  dup3\n    /* \"#utility.yul\":2882:2915   */\n  tag_76\n  jump\t// in\ntag_75:\n    /* \"#utility.yul\":2792:2921   */\n  swap2\n  swap1\n  pop\n  jump\t// out\n    /* \"#utility.yul\":2927:3002   */\ntag_74:\n    /* \"#utility.yul\":2960:2966   */\n  0x00\n    /* \"#utility.yul\":2993:2995   */\n  0x40\n    /* \"#utility.yul\":2987:2996   */\n  mload\n    /* \"#utility.yul\":2977:2996   */\n  swap1\n  pop\n    /* \"#utility.yul\":2927:3002   */\n  swap1\n  jump\t// out\n    /* \"#utility.yul\":3008:3316   */\ntag_31:\n    /* \"#utility.yul\":3070:3074   */\n  0x00\n    /* \"#utility.yul\":3160:3178   */\n  0xffffffffffffffff\n    /* \"#utility.yul\":3152:3158   */\n  dup3\n    /* \"#utility.yul\":3149:3179   */\n  gt\n    /* \"#utility.yul\":3146:3202   */\n  iszero\n  tag_79\n  jumpi\n    /* \"#utility.yul\":3182:3200   */\n  tag_80\n  tag_81\n  jump\t// in\ntag_80:\n    /* \"#utility.yul\":3146:3202   */\ntag_79:\n    /* \"#utility.yul\":3220:3249   */\n  tag_82\n    /* \"#utility.yul\":3242:3248   */\n  dup3\n    /* \"#utility.yul\":3220:3249   */\n  tag_67\n  jump\t// in\ntag_82:\n    /* \"#utility.yul\":3212:3249   */\n  swap1\n  pop\n    /* \"#utility.yul\":3304:3308   */\n  0x20\n    /* \"#utility.yul\":3298:3302   */\n  dup2\n    /* \"#utility.yul\":3294:3309   */\n  add\n    /* \"#utility.yul\":3286:3309   */\n  swap1\n  pop\n    /* \"#utility.yul\":3008:3316   */\n  swap2\n  swap1\n  pop\n  jump\t// out\n    /* \"#utility.yul\":3322:3421   */\ntag_62:\n    /* \"#utility.yul\":3374:3380   */\n  0x00\n    /* \"#utility.yul\":3408:3413   */\n  dup2\n    /* \"#utility.yul\":3402:3414   */\n  mload\n    /* \"#utility.yul\":3392:3414   */\n  swap1\n  pop\n    /* \"#utility.yul\":3322:3421   */\n  swap2\n  swap1\n  pop\n  jump\t// out\n    /* \"#utility.yul\":3427:3596   */\ntag_64:\n    /* \"#utility.yul\":3511:3522   */\n  0x00\n    /* \"#utility.yul\":3545:3551   */\n  dup3\n    /* \"#utility.yul\":3540:3543   */\n  dup3\n    /* \"#utility.yul\":3533:3552   */\n  mstore\n    /* \"#utility.yul\":3585:3589   */\n  0x20\n    /* \"#utility.yul\":3580:3583   */\n  dup3\n    /* \"#utility.yul\":3576:3590   */\n  add\n    /* \"#utility.yul\":3561:3590   */\n  swap1\n  pop\n    /* \"#utility.yul\":3427:3596   */\n  swap3\n  swap2\n  pop\n  pop\n  jump\t// out\n    /* \"#utility.yul\":3602:3698   */\ntag_58:\n    /* \"#utility.yul\":3639:3646   */\n  0x00\n    /* \"#utility.yul\":3668:3692   */\n  tag_86\n    /* \"#utility.yul\":3686:3691   */\n  dup3\n    /* \"#utility.yul\":3668:3692   */\n  tag_87\n  jump\t// in\ntag_86:\n    /* \"#utility.yul\":3657:3692   */\n  swap1\n  pop\n    /* \"#utility.yul\":3602:3698   */\n  swap2\n  swap1\n  pop\n  jump\t// out\n    /* \"#utility.yul\":3704:3830   */\ntag_87:\n    /* \"#utility.yul\":3741:3748   */\n  0x00\n    /* \"#utility.yul\":3781:3823   */\n  0xffffffffffffffffffffffffffffffffffffffff\n    /* \"#utility.yul\":3774:3779   */\n  dup3\n    /* \"#utility.yul\":3770:3824   */\n  and\n    /* \"#utility.yul\":3759:3824   */\n  swap1\n  pop\n    /* \"#utility.yul\":3704:3830   */\n  swap2\n  swap1\n  pop\n  jump\t// out\n    /* \"#utility.yul\":3836:4143   */\ntag_37:\n    /* \"#utility.yul\":3904:3905   */\n  0x00\n    /* \"#utility.yul\":3914:4027   */\ntag_90:\n    /* \"#utility.yul\":3928:3934   */\n  dup4\n    /* \"#utility.yul\":3925:3926   */\n  dup2\n    /* \"#utility.yul\":3922:3935   */\n  lt\n    /* \"#utility.yul\":3914:4027   */\n  iszero\n  tag_92\n  jumpi\n    /* \"#utility.yul\":4013:4014   */\n  dup1\n    /* \"#utility.yul\":4008:4011   */\n  dup3\n    /* \"#utility.yul\":4004:4015   */\n  add\n    /* \"#utility.yul\":3998:4016   */\n  mload\n    /* \"#utility.yul\":3994:3995   */\n  dup2\n    /* \"#utility.yul\":3989:3992   */\n  dup5\n    /* \"#utility.yul\":3985:3996   */\n  add\n    /* \"#utility.yul\":3978:4017   */\n  mstore\n    /* \"#utility.yul\":3950:3952   */\n  0x20\n    /* \"#utility.yul\":3947:3948   */\n  dup2\n    /* \"#utility.yul\":3943:3953   */\n  add\n    /* \"#utility.yul\":3938:3953   */\n  swap1\n  pop\n    /* \"#utility.yul\":3914:4027   */\n  jump(tag_90)\ntag_92:\n    /* \"#utility.yul\":4045:4051   */\n  dup4\n    /* \"#utility.yul\":4042:4043   */\n  dup2\n    /* \"#utility.yul\":4039:4052   */\n  gt\n    /* \"#utility.yul\":4036:4137   */\n  iszero\n  tag_93\n  jumpi\n    /* \"#utility.yul\":4125:4126   */\n  0x00\n    /* \"#utility.yul\":4116:4122   */\n  dup5\n    /* \"#utility.yul\":4111:4114   */\n  dup5\n    /* \"#utility.yul\":4107:4123   */\n  add\n    /* \"#utility.yul\":4100:4127   */\n  mstore\n    /* \"#utility.yul\":4036:4137   */\ntag_93:\n    /* \"#utility.yul\":3885:4143   */\n  pop\n    /* \"#utility.yul\":3836:4143   */\n  pop\n  pop\n  pop\n  jump\t// out\n    /* \"#utility.yul\":4149:4469   */\ntag_16:\n    /* \"#utility.yul\":4193:4199   */\n  0x00\n    /* \"#utility.yul\":4230:4231   */\n  0x02\n    /* \"#utility.yul\":4224:4228   */\n  dup3\n    /* \"#utility.yul\":4220:4232   */\n  div\n    /* \"#utility.yul\":4210:4232   */\n  swap1\n  pop\n    /* \"#utility.yul\":4277:4278   */\n  0x01\n    /* \"#utility.yul\":4271:4275   */\n  dup3\n    /* \"#utility.yul\":4267:4279   */\n  and\n    /* \"#utility.yul\":4298:4316   */\n  dup1\n    /* \"#utility.yul\":4288:4369   */\n  tag_95\n  jumpi\n    /* \"#utility.yul\":4354:4358   */\n  0x7f\n    /* \"#utility.yul\":4346:4352   */\n  dup3\n    /* \"#utility.yul\":4342:4359   */\n  and\n    /* \"#utility.yul\":4332:4359   */\n  swap2\n  pop\n    /* \"#utility.yul\":4288:4369   */\ntag_95:\n    /* \"#utility.yul\":4416:4418   */\n  0x20\n    /* \"#utility.yul\":4408:4414   */\n  dup3\n    /* \"#utility.yul\":4405:4419   */\n  lt\n    /* \"#utility.yul\":4385:4403   */\n  dup2\n    /* \"#utility.yul\":4382:4420   */\n  eq\n    /* \"#utility.yul\":4379:4463   */\n  iszero\n  tag_96\n  jumpi\n    /* \"#utility.yul\":4435:4453   */\n  tag_97\n  tag_98\n  jump\t// in\ntag_97:\n    /* \"#utility.yul\":4379:4463   */\ntag_96:\n    /* \"#utility.yul\":4200:4469   */\n  pop\n    /* \"#utility.yul\":4149:4469   */\n  swap2\n  swap1\n  pop\n  jump\t// out\n    /* \"#utility.yul\":4475:4756   */\ntag_76:\n    /* \"#utility.yul\":4558:4585   */\n  tag_100\n    /* \"#utility.yul\":4580:4584   */\n  dup3\n    /* \"#utility.yul\":4558:4585   */\n  tag_67\n  jump\t// in\ntag_100:\n    /* \"#utility.yul\":4550:4556   */\n  dup2\n    /* \"#utility.yul\":4546:4586   */\n  add\n    /* \"#utility.yul\":4688:4694   */\n  dup2\n    /* \"#utility.yul\":4676:4686   */\n  dup2\n    /* \"#utility.yul\":4673:4695   */\n  lt\n    /* \"#utility.yul\":4652:4670   */\n  0xffffffffffffffff\n    /* \"#utility.yul\":4640:4650   */\n  dup3\n    /* \"#utility.yul\":4637:4671   */\n  gt\n    /* \"#utility.yul\":4634:4696   */\n  or\n    /* \"#utility.yul\":4631:4719   */\n  iszero\n  tag_101\n  jumpi\n    /* \"#utility.yul\":4699:4717   */\n  tag_102\n  tag_81\n  jump\t// in\ntag_102:\n    /* \"#utility.yul\":4631:4719   */\ntag_101:\n    /* \"#utility.yul\":4739:4749   */\n  dup1\n    /* \"#utility.yul\":4735:4737   */\n  0x40\n    /* \"#utility.yul\":4728:4750   */\n  mstore\n    /* \"#utility.yul\":4518:4756   */\n  pop\n    /* \"#utility.yul\":4475:4756   */\n  pop\n  pop\n  jump\t// out\n    /* \"#utility.yul\":4762:4942   */\ntag_98:\n    /* \"#utility.yul\":4810:4887   */\n  0x4e487b7100000000000000000000000000000000000000000000000000000000\n    /* \"#utility.yul\":4807:4808   */\n  0x00\n    /* \"#utility.yul\":4800:4888   */\n  mstore\n    /* \"#utility.yul\":4907:4911   */\n  0x22\n    /* \"#utility.yul\":4904:4905   */\n  0x04\n    /* \"#utility.yul\":4897:4912   */\n  mstore\n    /* \"#utility.yul\":4931:4935   */\n  0x24\n    /* \"#utility.yul\":4928:4929   */\n  0x00\n    /* \"#utility.yul\":4921:4936   */\n  revert\n    /* \"#utility.yul\":4948:5128   */\ntag_81:\n    /* \"#utility.yul\":4996:5073   */\n  0x4e487b7100000000000000000000000000000000000000000000000000000000\n    /* \"#utility.yul\":4993:4994   */\n  0x00\n    /* \"#utility.yul\":4986:5074   */\n  mstore\n    /* \"#utility.yul\":5093:5097   */\n  0x41\n    /* \"#utility.yul\":5090:5091   */\n  0x04\n    /* \"#utility.yul\":5083:5098   */\n  mstore\n    /* \"#utility.yul\":5117:5121   */\n  0x24\n    /* \"#utility.yul\":5114:5115   */\n  0x00\n    /* \"#utility.yul\":5107:5122   */\n  revert\n    /* \"#utility.yul\":5134:5251   */\ntag_42:\n    /* \"#utility.yul\":5243:5244   */\n  0x00\n    /* \"#utility.yul\":5240:5241   */\n  dup1\n    /* \"#utility.yul\":5233:5245   */\n  revert\n    /* \"#utility.yul\":5257:5374   */\ntag_35:\n    /* \"#utility.yul\":5366:5367   */\n  0x00\n    /* \"#utility.yul\":5363:5364   */\n  dup1\n    /* \"#utility.yul\":5356:5368   */\n  revert\n    /* \"#utility.yul\":5380:5497   */\ntag_50:\n    /* \"#utility.yul\":5489:5490   */\n  0x00\n    /* \"#utility.yul\":5486:5487   */\n  dup1\n    /* \"#utility.yul\":5479:5491   */\n  revert\n    /* \"#utility.yul\":5503:5620   */\ntag_47:\n    /* \"#utility.yul\":5612:5613   */\n  0x00\n    /* \"#utility.yul\":5609:5610   */\n  dup1\n    /* \"#utility.yul\":5602:5614   */\n  revert\n    /* \"#utility.yul\":5626:5728   */\ntag_67:\n    /* \"#utility.yul\":5667:5673   */\n  0x00\n    /* \"#utility.yul\":5718:5720   */\n  0x1f\n    /* \"#utility.yul\":5714:5721   */\n  not\n    /* \"#utility.yul\":5709:5711   */\n  0x1f\n    /* \"#utility.yul\":5702:5707   */\n  dup4\n    /* \"#utility.yul\":5698:5712   */\n  add\n    /* \"#utility.yul\":5694:5722   */\n  and\n    /* \"#utility.yul\":5684:5722   */\n  swap1\n  pop\n    /* \"#utility.yul\":5626:5728   */\n  swap2\n  swap1\n  pop\n  jump\t// out\n    /* \"InternetBillboard.sol\":64:1549  contract InternetBillboard {\r... */\ntag_14:\n  dataSize(sub_0)\n  dup1\n  dataOffset(sub_0)\n  0x00\n  codecopy\n  0x00\n  return\nstop\n\nsub_0: assembly {\n        /* \"InternetBillboard.sol\":64:1549  contract InternetBillboard {\r... */\n      mstore(0x40, 0x80)\n      callvalue\n      dup1\n      iszero\n      tag_1\n      jumpi\n      0x00\n      dup1\n      revert\n    tag_1:\n      pop\n      jumpi(tag_2, lt(calldatasize, 0x04))\n      shr(0xe0, calldataload(0x00))\n      dup1\n      0xa7a38f0b\n      gt\n      tag_10\n      jumpi\n      dup1\n      0xa7a38f0b\n      eq\n      tag_6\n      jumpi\n      dup1\n      0xe21f37ce\n      eq\n      tag_7\n      jumpi\n      dup1\n      0xea08629b\n      eq\n      tag_8\n      jumpi\n      dup1\n      0xf3ccaac0\n      eq\n      tag_9\n      jumpi\n      jump(tag_2)\n    tag_10:\n      dup1\n      0x02d05d3f\n      eq\n      tag_3\n      jumpi\n      dup1\n      0x5478f468\n      eq\n      tag_4\n      jumpi\n      dup1\n      0x9850fedb\n      eq\n      tag_5\n      jumpi\n    tag_2:\n      0x00\n      dup1\n      revert\n        /* \"InternetBillboard.sol\":259:281  address public creator */\n    tag_3:\n      tag_11\n      tag_12\n      jump\t// in\n    tag_11:\n      mload(0x40)\n      tag_13\n      swap2\n      swap1\n      tag_14\n      jump\t// in\n    tag_13:\n      mload(0x40)\n      dup1\n      swap2\n      sub\n      swap1\n      return\n        /* \"InternetBillboard.sol\":1450:1546  function getHistoryLength() external view returns(uint) {\r... */\n    tag_4:\n      tag_15\n      tag_16\n      jump\t// in\n    tag_15:\n      mload(0x40)\n      tag_17\n      swap2\n      swap1\n      tag_18\n      jump\t// in\n    tag_17:\n      mload(0x40)\n      dup1\n      swap2\n      sub\n      swap1\n      return\n        /* \"InternetBillboard.sol\":1306:1442  function getBillboard() external view returns(string memory, string memory, address) {\r... */\n    tag_5:\n      tag_19\n      tag_20\n      jump\t// in\n    tag_19:\n      mload(0x40)\n      tag_21\n      swap4\n      swap3\n      swap2\n      swap1\n      tag_22\n      jump\t// in\n    tag_21:\n      mload(0x40)\n      dup1\n      swap2\n      sub\n      swap1\n      return\n        /* \"InternetBillboard.sol\":288:314  Billboard[] public history */\n    tag_6:\n      tag_23\n      0x04\n      dup1\n      calldatasize\n      sub\n      dup2\n      add\n      swap1\n      tag_24\n      swap2\n      swap1\n      tag_25\n      jump\t// in\n    tag_24:\n      tag_26\n      jump\t// in\n    tag_23:\n      mload(0x40)\n      tag_27\n      swap4\n      swap3\n      swap2\n      swap1\n      tag_22\n      jump\t// in\n    tag_27:\n      mload(0x40)\n      dup1\n      swap2\n      sub\n      swap1\n      return\n        /* \"InternetBillboard.sol\":205:226  string public message */\n    tag_7:\n      tag_28\n      tag_29\n      jump\t// in\n    tag_28:\n      mload(0x40)\n      tag_30\n      swap2\n      swap1\n      tag_31\n      jump\t// in\n    tag_30:\n      mload(0x40)\n      dup1\n      swap2\n      sub\n      swap1\n      return\n        /* \"InternetBillboard.sol\":858:1298  function setBillboard(string calldata newMessage, string calldata newImage) external {\r... */\n    tag_8:\n      tag_32\n      0x04\n      dup1\n      calldatasize\n      sub\n      dup2\n      add\n      swap1\n      tag_33\n      swap2\n      swap1\n      tag_34\n      jump\t// in\n    tag_33:\n      tag_35\n      jump\t// in\n    tag_32:\n      stop\n        /* \"InternetBillboard.sol\":233:252  string public image */\n    tag_9:\n      tag_36\n      tag_37\n      jump\t// in\n    tag_36:\n      mload(0x40)\n      tag_38\n      swap2\n      swap1\n      tag_31\n      jump\t// in\n    tag_38:\n      mload(0x40)\n      dup1\n      swap2\n      sub\n      swap1\n      return\n        /* \"InternetBillboard.sol\":259:281  address public creator */\n    tag_12:\n      0x02\n      0x00\n      swap1\n      sload\n      swap1\n      0x0100\n      exp\n      swap1\n      div\n      0xffffffffffffffffffffffffffffffffffffffff\n      and\n      dup2\n      jump\t// out\n        /* \"InternetBillboard.sol\":1450:1546  function getHistoryLength() external view returns(uint) {\r... */\n    tag_16:\n        /* \"InternetBillboard.sol\":1500:1504  uint */\n      0x00\n        /* \"InternetBillboard.sol\":1524:1531  history */\n      0x03\n        /* \"InternetBillboard.sol\":1524:1538  history.length */\n      dup1\n      sload\n      swap1\n      pop\n        /* \"InternetBillboard.sol\":1517:1538  return history.length */\n      swap1\n      pop\n        /* \"InternetBillboard.sol\":1450:1546  function getHistoryLength() external view returns(uint) {\r... */\n      swap1\n      jump\t// out\n        /* \"InternetBillboard.sol\":1306:1442  function getBillboard() external view returns(string memory, string memory, address) {\r... */\n    tag_20:\n        /* \"InternetBillboard.sol\":1352:1365  string memory */\n      0x60\n        /* \"InternetBillboard.sol\":1367:1380  string memory */\n      dup1\n        /* \"InternetBillboard.sol\":1382:1389  address */\n      0x00\n        /* \"InternetBillboard.sol\":1410:1417  message */\n      dup1\n        /* \"InternetBillboard.sol\":1419:1424  image */\n      0x01\n        /* \"InternetBillboard.sol\":1426:1433  creator */\n      0x02\n      0x00\n      swap1\n      sload\n      swap1\n      0x0100\n      exp\n      swap1\n      div\n      0xffffffffffffffffffffffffffffffffffffffff\n      and\n        /* \"InternetBillboard.sol\":1402:1434  return (message, image, creator) */\n      dup3\n      dup1\n      sload\n      tag_41\n      swap1\n      tag_42\n      jump\t// in\n    tag_41:\n      dup1\n      0x1f\n      add\n      0x20\n      dup1\n      swap2\n      div\n      mul\n      0x20\n      add\n      mload(0x40)\n      swap1\n      dup2\n      add\n      0x40\n      mstore\n      dup1\n      swap3\n      swap2\n      swap1\n      dup2\n      dup2\n      mstore\n      0x20\n      add\n      dup3\n      dup1\n      sload\n      tag_43\n      swap1\n      tag_42\n      jump\t// in\n    tag_43:\n      dup1\n      iszero\n      tag_44\n      jumpi\n      dup1\n      0x1f\n      lt\n      tag_45\n      jumpi\n      0x0100\n      dup1\n      dup4\n      sload\n      div\n      mul\n      dup4\n      mstore\n      swap2\n      0x20\n      add\n      swap2\n      jump(tag_44)\n    tag_45:\n      dup3\n      add\n      swap2\n      swap1\n      0x00\n      mstore\n      keccak256(0x00, 0x20)\n      swap1\n    tag_46:\n      dup2\n      sload\n      dup2\n      mstore\n      swap1\n      0x01\n      add\n      swap1\n      0x20\n      add\n      dup1\n      dup4\n      gt\n      tag_46\n      jumpi\n      dup3\n      swap1\n      sub\n      0x1f\n      and\n      dup3\n      add\n      swap2\n    tag_44:\n      pop\n      pop\n      pop\n      pop\n      pop\n      swap3\n      pop\n      dup2\n      dup1\n      sload\n      tag_47\n      swap1\n      tag_42\n      jump\t// in\n    tag_47:\n      dup1\n      0x1f\n      add\n      0x20\n      dup1\n      swap2\n      div\n      mul\n      0x20\n      add\n      mload(0x40)\n      swap1\n      dup2\n      add\n      0x40\n      mstore\n      dup1\n      swap3\n      swap2\n      swap1\n      dup2\n      dup2\n      mstore\n      0x20\n      add\n      dup3\n      dup1\n      sload\n      tag_48\n      swap1\n      tag_42\n      jump\t// in\n    tag_48:\n      dup1\n      iszero\n      tag_49\n      jumpi\n      dup1\n      0x1f\n      lt\n      tag_50\n      jumpi\n      0x0100\n      dup1\n      dup4\n      sload\n      div\n      mul\n      dup4\n      mstore\n      swap2\n      0x20\n      add\n      swap2\n      jump(tag_49)\n    tag_50:\n      dup3\n      add\n      swap2\n      swap1\n      0x00\n      mstore\n      keccak256(0x00, 0x20)\n      swap1\n    tag_51:\n      dup2\n      sload\n      dup2\n      mstore\n      swap1\n      0x01\n      add\n      swap1\n      0x20\n      add\n      dup1\n      dup4\n      gt\n      tag_51\n      jumpi\n      dup3\n      swap1\n      sub\n      0x1f\n      and\n      dup3\n      add\n      swap2\n    tag_49:\n      pop\n      pop\n      pop\n      pop\n      pop\n      swap2\n      pop\n      swap3\n      pop\n      swap3\n      pop\n      swap3\n      pop\n        /* \"InternetBillboard.sol\":1306:1442  function getBillboard() external view returns(string memory, string memory, address) {\r... */\n      swap1\n      swap2\n      swap3\n      jump\t// out\n        /* \"InternetBillboard.sol\":288:314  Billboard[] public history */\n    tag_26:\n      0x03\n      dup2\n      dup2\n      sload\n      dup2\n      lt\n      tag_52\n      jumpi\n      0x00\n      dup1\n      revert\n    tag_52:\n      swap1\n      0x00\n      mstore\n      keccak256(0x00, 0x20)\n      swap1\n      0x03\n      mul\n      add\n      0x00\n      swap2\n      pop\n      swap1\n      pop\n      dup1\n      0x00\n      add\n      dup1\n      sload\n      tag_54\n      swap1\n      tag_42\n      jump\t// in\n    tag_54:\n      dup1\n      0x1f\n      add\n      0x20\n      dup1\n      swap2\n      div\n      mul\n      0x20\n      add\n      mload(0x40)\n      swap1\n      dup2\n      add\n      0x40\n      mstore\n      dup1\n      swap3\n      swap2\n      swap1\n      dup2\n      dup2\n      mstore\n      0x20\n      add\n      dup3\n      dup1\n      sload\n      tag_55\n      swap1\n      tag_42\n      jump\t// in\n    tag_55:\n      dup1\n      iszero\n      tag_56\n      jumpi\n      dup1\n      0x1f\n      lt\n      tag_57\n      jumpi\n      0x0100\n      dup1\n      dup4\n      sload\n      div\n      mul\n      dup4\n      mstore\n      swap2\n      0x20\n      add\n      swap2\n      jump(tag_56)\n    tag_57:\n      dup3\n      add\n      swap2\n      swap1\n      0x00\n      mstore\n      keccak256(0x00, 0x20)\n      swap1\n    tag_58:\n      dup2\n      sload\n      dup2\n      mstore\n      swap1\n      0x01\n      add\n      swap1\n      0x20\n      add\n      dup1\n      dup4\n      gt\n      tag_58\n      jumpi\n      dup3\n      swap1\n      sub\n      0x1f\n      and\n      dup3\n      add\n      swap2\n    tag_56:\n      pop\n      pop\n      pop\n      pop\n      pop\n      swap1\n      dup1\n      0x01\n      add\n      dup1\n      sload\n      tag_59\n      swap1\n      tag_42\n      jump\t// in\n    tag_59:\n      dup1\n      0x1f\n      add\n      0x20\n      dup1\n      swap2\n      div\n      mul\n      0x20\n      add\n      mload(0x40)\n      swap1\n      dup2\n      add\n      0x40\n      mstore\n      dup1\n      swap3\n      swap2\n      swap1\n      dup2\n      dup2\n      mstore\n      0x20\n      add\n      dup3\n      dup1\n      sload\n      tag_60\n      swap1\n      tag_42\n      jump\t// in\n    tag_60:\n      dup1\n      iszero\n      tag_61\n      jumpi\n      dup1\n      0x1f\n      lt\n      tag_62\n      jumpi\n      0x0100\n      dup1\n      dup4\n      sload\n      div\n      mul\n      dup4\n      mstore\n      swap2\n      0x20\n      add\n      swap2\n      jump(tag_61)\n    tag_62:\n      dup3\n      add\n      swap2\n      swap1\n      0x00\n      mstore\n      keccak256(0x00, 0x20)\n      swap1\n    tag_63:\n      dup2\n      sload\n      dup2\n      mstore\n      swap1\n      0x01\n      add\n      swap1\n      0x20\n      add\n      dup1\n      dup4\n      gt\n      tag_63\n      jumpi\n      dup3\n      swap1\n      sub\n      0x1f\n      and\n      dup3\n      add\n      swap2\n    tag_61:\n      pop\n      pop\n      pop\n      pop\n      pop\n      swap1\n      dup1\n      0x02\n      add\n      0x00\n      swap1\n      sload\n      swap1\n      0x0100\n      exp\n      swap1\n      div\n      0xffffffffffffffffffffffffffffffffffffffff\n      and\n      swap1\n      pop\n      dup4\n      jump\t// out\n        /* \"InternetBillboard.sol\":205:226  string public message */\n    tag_29:\n      0x00\n      dup1\n      sload\n      tag_64\n      swap1\n      tag_42\n      jump\t// in\n    tag_64:\n      dup1\n      0x1f\n      add\n      0x20\n      dup1\n      swap2\n      div\n      mul\n      0x20\n      add\n      mload(0x40)\n      swap1\n      dup2\n      add\n      0x40\n      mstore\n      dup1\n      swap3\n      swap2\n      swap1\n      dup2\n      dup2\n      mstore\n      0x20\n      add\n      dup3\n      dup1\n      sload\n      tag_65\n      swap1\n      tag_42\n      jump\t// in\n    tag_65:\n      dup1\n      iszero\n      tag_66\n      jumpi\n      dup1\n      0x1f\n      lt\n      tag_67\n      jumpi\n      0x0100\n      dup1\n      dup4\n      sload\n      div\n      mul\n      dup4\n      mstore\n      swap2\n      0x20\n      add\n      swap2\n      jump(tag_66)\n    tag_67:\n      dup3\n      add\n      swap2\n      swap1\n      0x00\n      mstore\n      keccak256(0x00, 0x20)\n      swap1\n    tag_68:\n      dup2\n      sload\n      dup2\n      mstore\n      swap1\n      0x01\n      add\n      swap1\n      0x20\n      add\n      dup1\n      dup4\n      gt\n      tag_68\n      jumpi\n      dup3\n      swap1\n      sub\n      0x1f\n      and\n      dup3\n      add\n      swap2\n    tag_66:\n      pop\n      pop\n      pop\n      pop\n      pop\n      dup2\n      jump\t// out\n        /* \"InternetBillboard.sol\":858:1298  function setBillboard(string calldata newMessage, string calldata newImage) external {\r... */\n    tag_35:\n        /* \"InternetBillboard.sol\":964:974  newMessage */\n      dup4\n      dup4\n        /* \"InternetBillboard.sol\":954:961  message */\n      0x00\n        /* \"InternetBillboard.sol\":954:974  message = newMessage */\n      swap2\n      swap1\n      tag_70\n      swap3\n      swap2\n      swap1\n      tag_71\n      jump\t// in\n    tag_70:\n      pop\n        /* \"InternetBillboard.sol\":993:1001  newImage */\n      dup2\n      dup2\n        /* \"InternetBillboard.sol\":985:990  image */\n      0x01\n        /* \"InternetBillboard.sol\":985:1001  image = newImage */\n      swap2\n      swap1\n      tag_72\n      swap3\n      swap2\n      swap1\n      tag_71\n      jump\t// in\n    tag_72:\n      pop\n        /* \"InternetBillboard.sol\":1022:1032  msg.sender */\n      caller\n        /* \"InternetBillboard.sol\":1012:1019  creator */\n      0x02\n      0x00\n        /* \"InternetBillboard.sol\":1012:1032  creator = msg.sender */\n      0x0100\n      exp\n      dup2\n      sload\n      dup2\n      0xffffffffffffffffffffffffffffffffffffffff\n      mul\n      not\n      and\n      swap1\n      dup4\n      0xffffffffffffffffffffffffffffffffffffffff\n      and\n      mul\n      or\n      swap1\n      sstore\n      pop\n        /* \"InternetBillboard.sol\":1045:1071  Billboard memory billboard */\n      0x00\n        /* \"InternetBillboard.sol\":1074:1194  Billboard({\r... */\n      mload(0x40)\n      dup1\n      0x60\n      add\n      0x40\n      mstore\n      dup1\n        /* \"InternetBillboard.sol\":1108:1118  newMessage */\n      dup7\n      dup7\n        /* \"InternetBillboard.sol\":1074:1194  Billboard({\r... */\n      dup1\n      dup1\n      0x1f\n      add\n      0x20\n      dup1\n      swap2\n      div\n      mul\n      0x20\n      add\n      mload(0x40)\n      swap1\n      dup2\n      add\n      0x40\n      mstore\n      dup1\n      swap4\n      swap3\n      swap2\n      swap1\n      dup2\n      dup2\n      mstore\n      0x20\n      add\n      dup4\n      dup4\n      dup1\n      dup3\n      dup5\n      calldatacopy\n      0x00\n      dup2\n      dup5\n      add\n      mstore\n      not(0x1f)\n      0x1f\n      dup3\n      add\n      and\n      swap1\n      pop\n      dup1\n      dup4\n      add\n      swap3\n      pop\n      pop\n      pop\n      pop\n      pop\n      pop\n      pop\n      dup2\n      mstore\n      0x20\n      add\n        /* \"InternetBillboard.sol\":1140:1148  newImage */\n      dup5\n      dup5\n        /* \"InternetBillboard.sol\":1074:1194  Billboard({\r... */\n      dup1\n      dup1\n      0x1f\n      add\n      0x20\n      dup1\n      swap2\n      div\n      mul\n      0x20\n      add\n      mload(0x40)\n      swap1\n      dup2\n      add\n      0x40\n      mstore\n      dup1\n      swap4\n      swap3\n      swap2\n      swap1\n      dup2\n      dup2\n      mstore\n      0x20\n      add\n      dup4\n      dup4\n      dup1\n      dup3\n      dup5\n      calldatacopy\n      0x00\n      dup2\n      dup5\n      add\n      mstore\n      not(0x1f)\n      0x1f\n      dup3\n      add\n      and\n      swap1\n      pop\n      dup1\n      dup4\n      add\n      swap3\n      pop\n      pop\n      pop\n      pop\n      pop\n      pop\n      pop\n      dup2\n      mstore\n      0x20\n      add\n        /* \"InternetBillboard.sol\":1172:1182  msg.sender */\n      caller\n        /* \"InternetBillboard.sol\":1074:1194  Billboard({\r... */\n      0xffffffffffffffffffffffffffffffffffffffff\n      and\n      dup2\n      mstore\n      pop\n        /* \"InternetBillboard.sol\":1045:1194  Billboard memory billboard = Billboard({\r... */\n      swap1\n      pop\n        /* \"InternetBillboard.sol\":1205:1212  history */\n      0x03\n        /* \"InternetBillboard.sol\":1218:1227  billboard */\n      dup2\n        /* \"InternetBillboard.sol\":1205:1228  history.push(billboard) */\n      swap1\n      dup1\n      0x01\n      dup2\n      sload\n      add\n      dup1\n      dup3\n      sstore\n      dup1\n      swap2\n      pop\n      pop\n      0x01\n      swap1\n      sub\n      swap1\n      0x00\n      mstore\n      keccak256(0x00, 0x20)\n      swap1\n      0x03\n      mul\n      add\n      0x00\n      swap1\n      swap2\n      swap1\n      swap2\n      swap1\n      swap2\n      pop\n      0x00\n      dup3\n      add\n      mload\n      dup2\n      0x00\n      add\n      swap1\n      dup1\n      mload\n      swap1\n      0x20\n      add\n      swap1\n      tag_74\n      swap3\n      swap2\n      swap1\n      tag_75\n      jump\t// in\n    tag_74:\n      pop\n      0x20\n      dup3\n      add\n      mload\n      dup2\n      0x01\n      add\n      swap1\n      dup1\n      mload\n      swap1\n      0x20\n      add\n      swap1\n      tag_76\n      swap3\n      swap2\n      swap1\n      tag_75\n      jump\t// in\n    tag_76:\n      pop\n      0x40\n      dup3\n      add\n      mload\n      dup2\n      0x02\n      add\n      exp(0x0100, 0x00)\n      dup2\n      sload\n      dup2\n      0xffffffffffffffffffffffffffffffffffffffff\n      mul\n      not\n      and\n      swap1\n      dup4\n      0xffffffffffffffffffffffffffffffffffffffff\n      and\n      mul\n      or\n      swap1\n      sstore\n      pop\n      pop\n      pop\n        /* \"InternetBillboard.sol\":1244:1290  NewBillboard(newMessage, newImage, msg.sender) */\n      0x74235dd15b991da7e3c5803f71b75cfb8aded023d34805f3a7e16961793ef823\n        /* \"InternetBillboard.sol\":1257:1267  newMessage */\n      dup6\n      dup6\n        /* \"InternetBillboard.sol\":1269:1277  newImage */\n      dup6\n      dup6\n        /* \"InternetBillboard.sol\":1279:1289  msg.sender */\n      caller\n        /* \"InternetBillboard.sol\":1244:1290  NewBillboard(newMessage, newImage, msg.sender) */\n      mload(0x40)\n      tag_77\n      swap6\n      swap5\n      swap4\n      swap3\n      swap2\n      swap1\n      tag_78\n      jump\t// in\n    tag_77:\n      mload(0x40)\n      dup1\n      swap2\n      sub\n      swap1\n      log1\n        /* \"InternetBillboard.sol\":943:1298  {\r... */\n      pop\n        /* \"InternetBillboard.sol\":858:1298  function setBillboard(string calldata newMessage, string calldata newImage) external {\r... */\n      pop\n      pop\n      pop\n      pop\n      jump\t// out\n        /* \"InternetBillboard.sol\":233:252  string public image */\n    tag_37:\n      0x01\n      dup1\n      sload\n      tag_79\n      swap1\n      tag_42\n      jump\t// in\n    tag_79:\n      dup1\n      0x1f\n      add\n      0x20\n      dup1\n      swap2\n      div\n      mul\n      0x20\n      add\n      mload(0x40)\n      swap1\n      dup2\n      add\n      0x40\n      mstore\n      dup1\n      swap3\n      swap2\n      swap1\n      dup2\n      dup2\n      mstore\n      0x20\n      add\n      dup3\n      dup1\n      sload\n      tag_80\n      swap1\n      tag_42\n      jump\t// in\n    tag_80:\n      dup1\n      iszero\n      tag_81\n      jumpi\n      dup1\n      0x1f\n      lt\n      tag_82\n      jumpi\n      0x0100\n      dup1\n      dup4\n      sload\n      div\n      mul\n      dup4\n      mstore\n      swap2\n      0x20\n      add\n      swap2\n      jump(tag_81)\n    tag_82:\n      dup3\n      add\n      swap2\n      swap1\n      0x00\n      mstore\n      keccak256(0x00, 0x20)\n      swap1\n    tag_83:\n      dup2\n      sload\n      dup2\n      mstore\n      swap1\n      0x01\n      add\n      swap1\n      0x20\n      add\n      dup1\n      dup4\n      gt\n      tag_83\n      jumpi\n      dup3\n      swap1\n      sub\n      0x1f\n      and\n      dup3\n      add\n      swap2\n    tag_81:\n      pop\n      pop\n      pop\n      pop\n      pop\n      dup2\n      jump\t// out\n    tag_71:\n      dup3\n      dup1\n      sload\n      tag_84\n      swap1\n      tag_42\n      jump\t// in\n    tag_84:\n      swap1\n      0x00\n      mstore\n      keccak256(0x00, 0x20)\n      swap1\n      0x1f\n      add\n      0x20\n      swap1\n      div\n      dup2\n      add\n      swap3\n      dup3\n      tag_86\n      jumpi\n      0x00\n      dup6\n      sstore\n      jump(tag_85)\n    tag_86:\n      dup3\n      0x1f\n      lt\n      tag_87\n      jumpi\n      dup1\n      calldataload\n      not(0xff)\n      and\n      dup4\n      dup1\n      add\n      or\n      dup6\n      sstore\n      jump(tag_85)\n    tag_87:\n      dup3\n      dup1\n      add\n      0x01\n      add\n      dup6\n      sstore\n      dup3\n      iszero\n      tag_85\n      jumpi\n      swap2\n      dup3\n      add\n    tag_88:\n      dup3\n      dup2\n      gt\n      iszero\n      tag_89\n      jumpi\n      dup3\n      calldataload\n      dup3\n      sstore\n      swap2\n      0x20\n      add\n      swap2\n      swap1\n      0x01\n      add\n      swap1\n      jump(tag_88)\n    tag_89:\n    tag_85:\n      pop\n      swap1\n      pop\n      tag_90\n      swap2\n      swap1\n      tag_91\n      jump\t// in\n    tag_90:\n      pop\n      swap1\n      jump\t// out\n    tag_75:\n      dup3\n      dup1\n      sload\n      tag_92\n      swap1\n      tag_42\n      jump\t// in\n    tag_92:\n      swap1\n      0x00\n      mstore\n      keccak256(0x00, 0x20)\n      swap1\n      0x1f\n      add\n      0x20\n      swap1\n      div\n      dup2\n      add\n      swap3\n      dup3\n      tag_94\n      jumpi\n      0x00\n      dup6\n      sstore\n      jump(tag_93)\n    tag_94:\n      dup3\n      0x1f\n      lt\n      tag_95\n      jumpi\n      dup1\n      mload\n      not(0xff)\n      and\n      dup4\n      dup1\n      add\n      or\n      dup6\n      sstore\n      jump(tag_93)\n    tag_95:\n      dup3\n      dup1\n      add\n      0x01\n      add\n      dup6\n      sstore\n      dup3\n      iszero\n      tag_93\n      jumpi\n      swap2\n      dup3\n      add\n    tag_96:\n      dup3\n      dup2\n      gt\n      iszero\n      tag_97\n      jumpi\n      dup3\n      mload\n      dup3\n      sstore\n      swap2\n      0x20\n      add\n      swap2\n      swap1\n      0x01\n      add\n      swap1\n      jump(tag_96)\n    tag_97:\n    tag_93:\n      pop\n      swap1\n      pop\n      tag_98\n      swap2\n      swap1\n      tag_91\n      jump\t// in\n    tag_98:\n      pop\n      swap1\n      jump\t// out\n    tag_91:\n    tag_99:\n      dup1\n      dup3\n      gt\n      iszero\n      tag_100\n      jumpi\n      0x00\n      dup2\n      0x00\n      swap1\n      sstore\n      pop\n      0x01\n      add\n      jump(tag_99)\n    tag_100:\n      pop\n      swap1\n      jump\t// out\n        /* \"#utility.yul\":21:574   */\n    tag_102:\n        /* \"#utility.yul\":79:87   */\n      0x00\n        /* \"#utility.yul\":89:95   */\n      dup1\n        /* \"#utility.yul\":139:142   */\n      dup4\n        /* \"#utility.yul\":132:136   */\n      0x1f\n        /* \"#utility.yul\":124:130   */\n      dup5\n        /* \"#utility.yul\":120:137   */\n      add\n        /* \"#utility.yul\":116:143   */\n      slt\n        /* \"#utility.yul\":106:228   */\n      tag_104\n      jumpi\n        /* \"#utility.yul\":147:226   */\n      tag_105\n      tag_106\n      jump\t// in\n    tag_105:\n        /* \"#utility.yul\":106:228   */\n    tag_104:\n        /* \"#utility.yul\":260:266   */\n      dup3\n        /* \"#utility.yul\":247:267   */\n      calldataload\n        /* \"#utility.yul\":237:267   */\n      swap1\n      pop\n        /* \"#utility.yul\":290:308   */\n      0xffffffffffffffff\n        /* \"#utility.yul\":282:288   */\n      dup2\n        /* \"#utility.yul\":279:309   */\n      gt\n        /* \"#utility.yul\":276:393   */\n      iszero\n      tag_107\n      jumpi\n        /* \"#utility.yul\":312:391   */\n      tag_108\n      tag_109\n      jump\t// in\n    tag_108:\n        /* \"#utility.yul\":276:393   */\n    tag_107:\n        /* \"#utility.yul\":426:430   */\n      0x20\n        /* \"#utility.yul\":418:424   */\n      dup4\n        /* \"#utility.yul\":414:431   */\n      add\n        /* \"#utility.yul\":402:431   */\n      swap2\n      pop\n        /* \"#utility.yul\":480:483   */\n      dup4\n        /* \"#utility.yul\":472:476   */\n      0x01\n        /* \"#utility.yul\":464:470   */\n      dup3\n        /* \"#utility.yul\":460:477   */\n      mul\n        /* \"#utility.yul\":450:458   */\n      dup4\n        /* \"#utility.yul\":446:478   */\n      add\n        /* \"#utility.yul\":443:484   */\n      gt\n        /* \"#utility.yul\":440:568   */\n      iszero\n      tag_110\n      jumpi\n        /* \"#utility.yul\":487:566   */\n      tag_111\n      tag_112\n      jump\t// in\n    tag_111:\n        /* \"#utility.yul\":440:568   */\n    tag_110:\n        /* \"#utility.yul\":21:574   */\n      swap3\n      pop\n      swap3\n      swap1\n      pop\n      jump\t// out\n        /* \"#utility.yul\":580:719   */\n    tag_113:\n        /* \"#utility.yul\":626:631   */\n      0x00\n        /* \"#utility.yul\":664:670   */\n      dup2\n        /* \"#utility.yul\":651:671   */\n      calldataload\n        /* \"#utility.yul\":642:671   */\n      swap1\n      pop\n        /* \"#utility.yul\":680:713   */\n      tag_115\n        /* \"#utility.yul\":707:712   */\n      dup2\n        /* \"#utility.yul\":680:713   */\n      tag_116\n      jump\t// in\n    tag_115:\n        /* \"#utility.yul\":580:719   */\n      swap3\n      swap2\n      pop\n      pop\n      jump\t// out\n        /* \"#utility.yul\":725:1599   */\n    tag_34:\n        /* \"#utility.yul\":817:823   */\n      0x00\n        /* \"#utility.yul\":825:831   */\n      dup1\n        /* \"#utility.yul\":833:839   */\n      0x00\n        /* \"#utility.yul\":841:847   */\n      dup1\n        /* \"#utility.yul\":890:892   */\n      0x40\n        /* \"#utility.yul\":878:887   */\n      dup6\n        /* \"#utility.yul\":869:876   */\n      dup8\n        /* \"#utility.yul\":865:888   */\n      sub\n        /* \"#utility.yul\":861:893   */\n      slt\n        /* \"#utility.yul\":858:977   */\n      iszero\n      tag_118\n      jumpi\n        /* \"#utility.yul\":896:975   */\n      tag_119\n      tag_120\n      jump\t// in\n    tag_119:\n        /* \"#utility.yul\":858:977   */\n    tag_118:\n        /* \"#utility.yul\":1044:1045   */\n      0x00\n        /* \"#utility.yul\":1033:1042   */\n      dup6\n        /* \"#utility.yul\":1029:1046   */\n      add\n        /* \"#utility.yul\":1016:1047   */\n      calldataload\n        /* \"#utility.yul\":1074:1092   */\n      0xffffffffffffffff\n        /* \"#utility.yul\":1066:1072   */\n      dup2\n        /* \"#utility.yul\":1063:1093   */\n      gt\n        /* \"#utility.yul\":1060:1177   */\n      iszero\n      tag_121\n      jumpi\n        /* \"#utility.yul\":1096:1175   */\n      tag_122\n      tag_123\n      jump\t// in\n    tag_122:\n        /* \"#utility.yul\":1060:1177   */\n    tag_121:\n        /* \"#utility.yul\":1209:1274   */\n      tag_124\n        /* \"#utility.yul\":1266:1273   */\n      dup8\n        /* \"#utility.yul\":1257:1263   */\n      dup3\n        /* \"#utility.yul\":1246:1255   */\n      dup9\n        /* \"#utility.yul\":1242:1264   */\n      add\n        /* \"#utility.yul\":1209:1274   */\n      tag_102\n      jump\t// in\n    tag_124:\n        /* \"#utility.yul\":1191:1274   */\n      swap5\n      pop\n      swap5\n      pop\n        /* \"#utility.yul\":987:1284   */\n      pop\n        /* \"#utility.yul\":1351:1353   */\n      0x20\n        /* \"#utility.yul\":1340:1349   */\n      dup6\n        /* \"#utility.yul\":1336:1354   */\n      add\n        /* \"#utility.yul\":1323:1355   */\n      calldataload\n        /* \"#utility.yul\":1382:1400   */\n      0xffffffffffffffff\n        /* \"#utility.yul\":1374:1380   */\n      dup2\n        /* \"#utility.yul\":1371:1401   */\n      gt\n        /* \"#utility.yul\":1368:1485   */\n      iszero\n      tag_125\n      jumpi\n        /* \"#utility.yul\":1404:1483   */\n      tag_126\n      tag_123\n      jump\t// in\n    tag_126:\n        /* \"#utility.yul\":1368:1485   */\n    tag_125:\n        /* \"#utility.yul\":1517:1582   */\n      tag_127\n        /* \"#utility.yul\":1574:1581   */\n      dup8\n        /* \"#utility.yul\":1565:1571   */\n      dup3\n        /* \"#utility.yul\":1554:1563   */\n      dup9\n        /* \"#utility.yul\":1550:1572   */\n      add\n        /* \"#utility.yul\":1517:1582   */\n      tag_102\n      jump\t// in\n    tag_127:\n        /* \"#utility.yul\":1499:1582   */\n      swap3\n      pop\n      swap3\n      pop\n        /* \"#utility.yul\":1294:1592   */\n      pop\n        /* \"#utility.yul\":725:1599   */\n      swap3\n      swap6\n      swap2\n      swap5\n      pop\n      swap3\n      pop\n      jump\t// out\n        /* \"#utility.yul\":1605:1934   */\n    tag_25:\n        /* \"#utility.yul\":1664:1670   */\n      0x00\n        /* \"#utility.yul\":1713:1715   */\n      0x20\n        /* \"#utility.yul\":1701:1710   */\n      dup3\n        /* \"#utility.yul\":1692:1699   */\n      dup5\n        /* \"#utility.yul\":1688:1711   */\n      sub\n        /* \"#utility.yul\":1684:1716   */\n      slt\n        /* \"#utility.yul\":1681:1800   */\n      iszero\n      tag_129\n      jumpi\n        /* \"#utility.yul\":1719:1798   */\n      tag_130\n      tag_120\n      jump\t// in\n    tag_130:\n        /* \"#utility.yul\":1681:1800   */\n    tag_129:\n        /* \"#utility.yul\":1839:1840   */\n      0x00\n        /* \"#utility.yul\":1864:1917   */\n      tag_131\n        /* \"#utility.yul\":1909:1916   */\n      dup5\n        /* \"#utility.yul\":1900:1906   */\n      dup3\n        /* \"#utility.yul\":1889:1898   */\n      dup6\n        /* \"#utility.yul\":1885:1907   */\n      add\n        /* \"#utility.yul\":1864:1917   */\n      tag_113\n      jump\t// in\n    tag_131:\n        /* \"#utility.yul\":1854:1917   */\n      swap2\n      pop\n        /* \"#utility.yul\":1810:1927   */\n      pop\n        /* \"#utility.yul\":1605:1934   */\n      swap3\n      swap2\n      pop\n      pop\n      jump\t// out\n        /* \"#utility.yul\":1940:2058   */\n    tag_132:\n        /* \"#utility.yul\":2027:2051   */\n      tag_134\n        /* \"#utility.yul\":2045:2050   */\n      dup2\n        /* \"#utility.yul\":2027:2051   */\n      tag_135\n      jump\t// in\n    tag_134:\n        /* \"#utility.yul\":2022:2025   */\n      dup3\n        /* \"#utility.yul\":2015:2052   */\n      mstore\n        /* \"#utility.yul\":1940:2058   */\n      pop\n      pop\n      jump\t// out\n        /* \"#utility.yul\":2088:2392   */\n    tag_136:\n        /* \"#utility.yul\":2186:2189   */\n      0x00\n        /* \"#utility.yul\":2207:2278   */\n      tag_138\n        /* \"#utility.yul\":2271:2277   */\n      dup4\n        /* \"#utility.yul\":2266:2269   */\n      dup6\n        /* \"#utility.yul\":2207:2278   */\n      tag_139\n      jump\t// in\n    tag_138:\n        /* \"#utility.yul\":2200:2278   */\n      swap4\n      pop\n        /* \"#utility.yul\":2288:2331   */\n      tag_140\n        /* \"#utility.yul\":2324:2330   */\n      dup4\n        /* \"#utility.yul\":2319:2322   */\n      dup6\n        /* \"#utility.yul\":2312:2317   */\n      dup5\n        /* \"#utility.yul\":2288:2331   */\n      tag_141\n      jump\t// in\n    tag_140:\n        /* \"#utility.yul\":2356:2385   */\n      tag_142\n        /* \"#utility.yul\":2378:2384   */\n      dup4\n        /* \"#utility.yul\":2356:2385   */\n      tag_143\n      jump\t// in\n    tag_142:\n        /* \"#utility.yul\":2351:2354   */\n      dup5\n        /* \"#utility.yul\":2347:2386   */\n      add\n        /* \"#utility.yul\":2340:2386   */\n      swap1\n      pop\n        /* \"#utility.yul\":2088:2392   */\n      swap4\n      swap3\n      pop\n      pop\n      pop\n      jump\t// out\n        /* \"#utility.yul\":2398:2762   */\n    tag_144:\n        /* \"#utility.yul\":2486:2489   */\n      0x00\n        /* \"#utility.yul\":2514:2553   */\n      tag_146\n        /* \"#utility.yul\":2547:2552   */\n      dup3\n        /* \"#utility.yul\":2514:2553   */\n      tag_147\n      jump\t// in\n    tag_146:\n        /* \"#utility.yul\":2569:2640   */\n      tag_148\n        /* \"#utility.yul\":2633:2639   */\n      dup2\n        /* \"#utility.yul\":2628:2631   */\n      dup6\n        /* \"#utility.yul\":2569:2640   */\n      tag_139\n      jump\t// in\n    tag_148:\n        /* \"#utility.yul\":2562:2640   */\n      swap4\n      pop\n        /* \"#utility.yul\":2649:2701   */\n      tag_149\n        /* \"#utility.yul\":2694:2700   */\n      dup2\n        /* \"#utility.yul\":2689:2692   */\n      dup6\n        /* \"#utility.yul\":2682:2686   */\n      0x20\n        /* \"#utility.yul\":2675:2680   */\n      dup7\n        /* \"#utility.yul\":2671:2687   */\n      add\n        /* \"#utility.yul\":2649:2701   */\n      tag_150\n      jump\t// in\n    tag_149:\n        /* \"#utility.yul\":2726:2755   */\n      tag_151\n        /* \"#utility.yul\":2748:2754   */\n      dup2\n        /* \"#utility.yul\":2726:2755   */\n      tag_143\n      jump\t// in\n    tag_151:\n        /* \"#utility.yul\":2721:2724   */\n      dup5\n        /* \"#utility.yul\":2717:2756   */\n      add\n        /* \"#utility.yul\":2710:2756   */\n      swap2\n      pop\n        /* \"#utility.yul\":2490:2762   */\n      pop\n        /* \"#utility.yul\":2398:2762   */\n      swap3\n      swap2\n      pop\n      pop\n      jump\t// out\n        /* \"#utility.yul\":2768:2886   */\n    tag_152:\n        /* \"#utility.yul\":2855:2879   */\n      tag_154\n        /* \"#utility.yul\":2873:2878   */\n      dup2\n        /* \"#utility.yul\":2855:2879   */\n      tag_155\n      jump\t// in\n    tag_154:\n        /* \"#utility.yul\":2850:2853   */\n      dup3\n        /* \"#utility.yul\":2843:2880   */\n      mstore\n        /* \"#utility.yul\":2768:2886   */\n      pop\n      pop\n      jump\t// out\n        /* \"#utility.yul\":2892:3114   */\n    tag_14:\n        /* \"#utility.yul\":2985:2989   */\n      0x00\n        /* \"#utility.yul\":3023:3025   */\n      0x20\n        /* \"#utility.yul\":3012:3021   */\n      dup3\n        /* \"#utility.yul\":3008:3026   */\n      add\n        /* \"#utility.yul\":3000:3026   */\n      swap1\n      pop\n        /* \"#utility.yul\":3036:3107   */\n      tag_157\n        /* \"#utility.yul\":3104:3105   */\n      0x00\n        /* \"#utility.yul\":3093:3102   */\n      dup4\n        /* \"#utility.yul\":3089:3106   */\n      add\n        /* \"#utility.yul\":3080:3086   */\n      dup5\n        /* \"#utility.yul\":3036:3107   */\n      tag_132\n      jump\t// in\n    tag_157:\n        /* \"#utility.yul\":2892:3114   */\n      swap3\n      swap2\n      pop\n      pop\n      jump\t// out\n        /* \"#utility.yul\":3120:3784   */\n    tag_78:\n        /* \"#utility.yul\":3329:3333   */\n      0x00\n        /* \"#utility.yul\":3367:3369   */\n      0x60\n        /* \"#utility.yul\":3356:3365   */\n      dup3\n        /* \"#utility.yul\":3352:3370   */\n      add\n        /* \"#utility.yul\":3344:3370   */\n      swap1\n      pop\n        /* \"#utility.yul\":3416:3425   */\n      dup2\n        /* \"#utility.yul\":3410:3414   */\n      dup2\n        /* \"#utility.yul\":3406:3426   */\n      sub\n        /* \"#utility.yul\":3402:3403   */\n      0x00\n        /* \"#utility.yul\":3391:3400   */\n      dup4\n        /* \"#utility.yul\":3387:3404   */\n      add\n        /* \"#utility.yul\":3380:3427   */\n      mstore\n        /* \"#utility.yul\":3444:3532   */\n      tag_159\n        /* \"#utility.yul\":3527:3531   */\n      dup2\n        /* \"#utility.yul\":3518:3524   */\n      dup8\n        /* \"#utility.yul\":3510:3516   */\n      dup10\n        /* \"#utility.yul\":3444:3532   */\n      tag_136\n      jump\t// in\n    tag_159:\n        /* \"#utility.yul\":3436:3532   */\n      swap1\n      pop\n        /* \"#utility.yul\":3579:3588   */\n      dup2\n        /* \"#utility.yul\":3573:3577   */\n      dup2\n        /* \"#utility.yul\":3569:3589   */\n      sub\n        /* \"#utility.yul\":3564:3566   */\n      0x20\n        /* \"#utility.yul\":3553:3562   */\n      dup4\n        /* \"#utility.yul\":3549:3567   */\n      add\n        /* \"#utility.yul\":3542:3590   */\n      mstore\n        /* \"#utility.yul\":3607:3695   */\n      tag_160\n        /* \"#utility.yul\":3690:3694   */\n      dup2\n        /* \"#utility.yul\":3681:3687   */\n      dup6\n        /* \"#utility.yul\":3673:3679   */\n      dup8\n        /* \"#utility.yul\":3607:3695   */\n      tag_136\n      jump\t// in\n    tag_160:\n        /* \"#utility.yul\":3599:3695   */\n      swap1\n      pop\n        /* \"#utility.yul\":3705:3777   */\n      tag_161\n        /* \"#utility.yul\":3773:3775   */\n      0x40\n        /* \"#utility.yul\":3762:3771   */\n      dup4\n        /* \"#utility.yul\":3758:3776   */\n      add\n        /* \"#utility.yul\":3749:3755   */\n      dup5\n        /* \"#utility.yul\":3705:3777   */\n      tag_132\n      jump\t// in\n    tag_161:\n        /* \"#utility.yul\":3120:3784   */\n      swap7\n      swap6\n      pop\n      pop\n      pop\n      pop\n      pop\n      pop\n      jump\t// out\n        /* \"#utility.yul\":3790:4103   */\n    tag_31:\n        /* \"#utility.yul\":3903:3907   */\n      0x00\n        /* \"#utility.yul\":3941:3943   */\n      0x20\n        /* \"#utility.yul\":3930:3939   */\n      dup3\n        /* \"#utility.yul\":3926:3944   */\n      add\n        /* \"#utility.yul\":3918:3944   */\n      swap1\n      pop\n        /* \"#utility.yul\":3990:3999   */\n      dup2\n        /* \"#utility.yul\":3984:3988   */\n      dup2\n        /* \"#utility.yul\":3980:4000   */\n      sub\n        /* \"#utility.yul\":3976:3977   */\n      0x00\n        /* \"#utility.yul\":3965:3974   */\n      dup4\n        /* \"#utility.yul\":3961:3978   */\n      add\n        /* \"#utility.yul\":3954:4001   */\n      mstore\n        /* \"#utility.yul\":4018:4096   */\n      tag_163\n        /* \"#utility.yul\":4091:4095   */\n      dup2\n        /* \"#utility.yul\":4082:4088   */\n      dup5\n        /* \"#utility.yul\":4018:4096   */\n      tag_144\n      jump\t// in\n    tag_163:\n        /* \"#utility.yul\":4010:4096   */\n      swap1\n      pop\n        /* \"#utility.yul\":3790:4103   */\n      swap3\n      swap2\n      pop\n      pop\n      jump\t// out\n        /* \"#utility.yul\":4109:4733   */\n    tag_22:\n        /* \"#utility.yul\":4298:4302   */\n      0x00\n        /* \"#utility.yul\":4336:4338   */\n      0x60\n        /* \"#utility.yul\":4325:4334   */\n      dup3\n        /* \"#utility.yul\":4321:4339   */\n      add\n        /* \"#utility.yul\":4313:4339   */\n      swap1\n      pop\n        /* \"#utility.yul\":4385:4394   */\n      dup2\n        /* \"#utility.yul\":4379:4383   */\n      dup2\n        /* \"#utility.yul\":4375:4395   */\n      sub\n        /* \"#utility.yul\":4371:4372   */\n      0x00\n        /* \"#utility.yul\":4360:4369   */\n      dup4\n        /* \"#utility.yul\":4356:4373   */\n      add\n        /* \"#utility.yul\":4349:4396   */\n      mstore\n        /* \"#utility.yul\":4413:4491   */\n      tag_165\n        /* \"#utility.yul\":4486:4490   */\n      dup2\n        /* \"#utility.yul\":4477:4483   */\n      dup7\n        /* \"#utility.yul\":4413:4491   */\n      tag_144\n      jump\t// in\n    tag_165:\n        /* \"#utility.yul\":4405:4491   */\n      swap1\n      pop\n        /* \"#utility.yul\":4538:4547   */\n      dup2\n        /* \"#utility.yul\":4532:4536   */\n      dup2\n        /* \"#utility.yul\":4528:4548   */\n      sub\n        /* \"#utility.yul\":4523:4525   */\n      0x20\n        /* \"#utility.yul\":4512:4521   */\n      dup4\n        /* \"#utility.yul\":4508:4526   */\n      add\n        /* \"#utility.yul\":4501:4549   */\n      mstore\n        /* \"#utility.yul\":4566:4644   */\n      tag_166\n        /* \"#utility.yul\":4639:4643   */\n      dup2\n        /* \"#utility.yul\":4630:4636   */\n      dup6\n        /* \"#utility.yul\":4566:4644   */\n      tag_144\n      jump\t// in\n    tag_166:\n        /* \"#utility.yul\":4558:4644   */\n      swap1\n      pop\n        /* \"#utility.yul\":4654:4726   */\n      tag_167\n        /* \"#utility.yul\":4722:4724   */\n      0x40\n        /* \"#utility.yul\":4711:4720   */\n      dup4\n        /* \"#utility.yul\":4707:4725   */\n      add\n        /* \"#utility.yul\":4698:4704   */\n      dup5\n        /* \"#utility.yul\":4654:4726   */\n      tag_132\n      jump\t// in\n    tag_167:\n        /* \"#utility.yul\":4109:4733   */\n      swap5\n      swap4\n      pop\n      pop\n      pop\n      pop\n      jump\t// out\n        /* \"#utility.yul\":4739:4961   */\n    tag_18:\n        /* \"#utility.yul\":4832:4836   */\n      0x00\n        /* \"#utility.yul\":4870:4872   */\n      0x20\n        /* \"#utility.yul\":4859:4868   */\n      dup3\n        /* \"#utility.yul\":4855:4873   */\n      add\n        /* \"#utility.yul\":4847:4873   */\n      swap1\n      pop\n        /* \"#utility.yul\":4883:4954   */\n      tag_169\n        /* \"#utility.yul\":4951:4952   */\n      0x00\n        /* \"#utility.yul\":4940:4949   */\n      dup4\n        /* \"#utility.yul\":4936:4953   */\n      add\n        /* \"#utility.yul\":4927:4933   */\n      dup5\n        /* \"#utility.yul\":4883:4954   */\n      tag_152\n      jump\t// in\n    tag_169:\n        /* \"#utility.yul\":4739:4961   */\n      swap3\n      swap2\n      pop\n      pop\n      jump\t// out\n        /* \"#utility.yul\":5048:5147   */\n    tag_147:\n        /* \"#utility.yul\":5100:5106   */\n      0x00\n        /* \"#utility.yul\":5134:5139   */\n      dup2\n        /* \"#utility.yul\":5128:5140   */\n      mload\n        /* \"#utility.yul\":5118:5140   */\n      swap1\n      pop\n        /* \"#utility.yul\":5048:5147   */\n      swap2\n      swap1\n      pop\n      jump\t// out\n        /* \"#utility.yul\":5153:5322   */\n    tag_139:\n        /* \"#utility.yul\":5237:5248   */\n      0x00\n        /* \"#utility.yul\":5271:5277   */\n      dup3\n        /* \"#utility.yul\":5266:5269   */\n      dup3\n        /* \"#utility.yul\":5259:5278   */\n      mstore\n        /* \"#utility.yul\":5311:5315   */\n      0x20\n        /* \"#utility.yul\":5306:5309   */\n      dup3\n        /* \"#utility.yul\":5302:5316   */\n      add\n        /* \"#utility.yul\":5287:5316   */\n      swap1\n      pop\n        /* \"#utility.yul\":5153:5322   */\n      swap3\n      swap2\n      pop\n      pop\n      jump\t// out\n        /* \"#utility.yul\":5328:5424   */\n    tag_135:\n        /* \"#utility.yul\":5365:5372   */\n      0x00\n        /* \"#utility.yul\":5394:5418   */\n      tag_175\n        /* \"#utility.yul\":5412:5417   */\n      dup3\n        /* \"#utility.yul\":5394:5418   */\n      tag_176\n      jump\t// in\n    tag_175:\n        /* \"#utility.yul\":5383:5418   */\n      swap1\n      pop\n        /* \"#utility.yul\":5328:5424   */\n      swap2\n      swap1\n      pop\n      jump\t// out\n        /* \"#utility.yul\":5430:5556   */\n    tag_176:\n        /* \"#utility.yul\":5467:5474   */\n      0x00\n        /* \"#utility.yul\":5507:5549   */\n      0xffffffffffffffffffffffffffffffffffffffff\n        /* \"#utility.yul\":5500:5505   */\n      dup3\n        /* \"#utility.yul\":5496:5550   */\n      and\n        /* \"#utility.yul\":5485:5550   */\n      swap1\n      pop\n        /* \"#utility.yul\":5430:5556   */\n      swap2\n      swap1\n      pop\n      jump\t// out\n        /* \"#utility.yul\":5562:5639   */\n    tag_155:\n        /* \"#utility.yul\":5599:5606   */\n      0x00\n        /* \"#utility.yul\":5628:5633   */\n      dup2\n        /* \"#utility.yul\":5617:5633   */\n      swap1\n      pop\n        /* \"#utility.yul\":5562:5639   */\n      swap2\n      swap1\n      pop\n      jump\t// out\n        /* \"#utility.yul\":5645:5799   */\n    tag_141:\n        /* \"#utility.yul\":5729:5735   */\n      dup3\n        /* \"#utility.yul\":5724:5727   */\n      dup2\n        /* \"#utility.yul\":5719:5722   */\n      dup4\n        /* \"#utility.yul\":5706:5736   */\n      calldatacopy\n        /* \"#utility.yul\":5791:5792   */\n      0x00\n        /* \"#utility.yul\":5782:5788   */\n      dup4\n        /* \"#utility.yul\":5777:5780   */\n      dup4\n        /* \"#utility.yul\":5773:5789   */\n      add\n        /* \"#utility.yul\":5766:5793   */\n      mstore\n        /* \"#utility.yul\":5645:5799   */\n      pop\n      pop\n      pop\n      jump\t// out\n        /* \"#utility.yul\":5805:6112   */\n    tag_150:\n        /* \"#utility.yul\":5873:5874   */\n      0x00\n        /* \"#utility.yul\":5883:5996   */\n    tag_181:\n        /* \"#utility.yul\":5897:5903   */\n      dup4\n        /* \"#utility.yul\":5894:5895   */\n      dup2\n        /* \"#utility.yul\":5891:5904   */\n      lt\n        /* \"#utility.yul\":5883:5996   */\n      iszero\n      tag_183\n      jumpi\n        /* \"#utility.yul\":5982:5983   */\n      dup1\n        /* \"#utility.yul\":5977:5980   */\n      dup3\n        /* \"#utility.yul\":5973:5984   */\n      add\n        /* \"#utility.yul\":5967:5985   */\n      mload\n        /* \"#utility.yul\":5963:5964   */\n      dup2\n        /* \"#utility.yul\":5958:5961   */\n      dup5\n        /* \"#utility.yul\":5954:5965   */\n      add\n        /* \"#utility.yul\":5947:5986   */\n      mstore\n        /* \"#utility.yul\":5919:5921   */\n      0x20\n        /* \"#utility.yul\":5916:5917   */\n      dup2\n        /* \"#utility.yul\":5912:5922   */\n      add\n        /* \"#utility.yul\":5907:5922   */\n      swap1\n      pop\n        /* \"#utility.yul\":5883:5996   */\n      jump(tag_181)\n    tag_183:\n        /* \"#utility.yul\":6014:6020   */\n      dup4\n        /* \"#utility.yul\":6011:6012   */\n      dup2\n        /* \"#utility.yul\":6008:6021   */\n      gt\n        /* \"#utility.yul\":6005:6106   */\n      iszero\n      tag_184\n      jumpi\n        /* \"#utility.yul\":6094:6095   */\n      0x00\n        /* \"#utility.yul\":6085:6091   */\n      dup5\n        /* \"#utility.yul\":6080:6083   */\n      dup5\n        /* \"#utility.yul\":6076:6092   */\n      add\n        /* \"#utility.yul\":6069:6096   */\n      mstore\n        /* \"#utility.yul\":6005:6106   */\n    tag_184:\n        /* \"#utility.yul\":5854:6112   */\n      pop\n        /* \"#utility.yul\":5805:6112   */\n      pop\n      pop\n      pop\n      jump\t// out\n        /* \"#utility.yul\":6118:6438   */\n    tag_42:\n        /* \"#utility.yul\":6162:6168   */\n      0x00\n        /* \"#utility.yul\":6199:6200   */\n      0x02\n        /* \"#utility.yul\":6193:6197   */\n      dup3\n        /* \"#utility.yul\":6189:6201   */\n      div\n        /* \"#utility.yul\":6179:6201   */\n      swap1\n      pop\n        /* \"#utility.yul\":6246:6247   */\n      0x01\n        /* \"#utility.yul\":6240:6244   */\n      dup3\n        /* \"#utility.yul\":6236:6248   */\n      and\n        /* \"#utility.yul\":6267:6285   */\n      dup1\n        /* \"#utility.yul\":6257:6338   */\n      tag_186\n      jumpi\n        /* \"#utility.yul\":6323:6327   */\n      0x7f\n        /* \"#utility.yul\":6315:6321   */\n      dup3\n        /* \"#utility.yul\":6311:6328   */\n      and\n        /* \"#utility.yul\":6301:6328   */\n      swap2\n      pop\n        /* \"#utility.yul\":6257:6338   */\n    tag_186:\n        /* \"#utility.yul\":6385:6387   */\n      0x20\n        /* \"#utility.yul\":6377:6383   */\n      dup3\n        /* \"#utility.yul\":6374:6388   */\n      lt\n        /* \"#utility.yul\":6354:6372   */\n      dup2\n        /* \"#utility.yul\":6351:6389   */\n      eq\n        /* \"#utility.yul\":6348:6432   */\n      iszero\n      tag_187\n      jumpi\n        /* \"#utility.yul\":6404:6422   */\n      tag_188\n      tag_189\n      jump\t// in\n    tag_188:\n        /* \"#utility.yul\":6348:6432   */\n    tag_187:\n        /* \"#utility.yul\":6169:6438   */\n      pop\n        /* \"#utility.yul\":6118:6438   */\n      swap2\n      swap1\n      pop\n      jump\t// out\n        /* \"#utility.yul\":6444:6624   */\n    tag_189:\n        /* \"#utility.yul\":6492:6569   */\n      0x4e487b7100000000000000000000000000000000000000000000000000000000\n        /* \"#utility.yul\":6489:6490   */\n      0x00\n        /* \"#utility.yul\":6482:6570   */\n      mstore\n        /* \"#utility.yul\":6589:6593   */\n      0x22\n        /* \"#utility.yul\":6586:6587   */\n      0x04\n        /* \"#utility.yul\":6579:6594   */\n      mstore\n        /* \"#utility.yul\":6613:6617   */\n      0x24\n        /* \"#utility.yul\":6610:6611   */\n      0x00\n        /* \"#utility.yul\":6603:6618   */\n      revert\n        /* \"#utility.yul\":6630:6747   */\n    tag_109:\n        /* \"#utility.yul\":6739:6740   */\n      0x00\n        /* \"#utility.yul\":6736:6737   */\n      dup1\n        /* \"#utility.yul\":6729:6741   */\n      revert\n        /* \"#utility.yul\":6753:6870   */\n    tag_106:\n        /* \"#utility.yul\":6862:6863   */\n      0x00\n        /* \"#utility.yul\":6859:6860   */\n      dup1\n        /* \"#utility.yul\":6852:6864   */\n      revert\n        /* \"#utility.yul\":6876:6993   */\n    tag_112:\n        /* \"#utility.yul\":6985:6986   */\n      0x00\n        /* \"#utility.yul\":6982:6983   */\n      dup1\n        /* \"#utility.yul\":6975:6987   */\n      revert\n        /* \"#utility.yul\":6999:7116   */\n    tag_123:\n        /* \"#utility.yul\":7108:7109   */\n      0x00\n        /* \"#utility.yul\":7105:7106   */\n      dup1\n        /* \"#utility.yul\":7098:7110   */\n      revert\n        /* \"#utility.yul\":7122:7239   */\n    tag_120:\n        /* \"#utility.yul\":7231:7232   */\n      0x00\n        /* \"#utility.yul\":7228:7229   */\n      dup1\n        /* \"#utility.yul\":7221:7233   */\n      revert\n        /* \"#utility.yul\":7245:7347   */\n    tag_143:\n        /* \"#utility.yul\":7286:7292   */\n      0x00\n        /* \"#utility.yul\":7337:7339   */\n      0x1f\n        /* \"#utility.yul\":7333:7340   */\n      not\n        /* \"#utility.yul\":7328:7330   */\n      0x1f\n        /* \"#utility.yul\":7321:7326   */\n      dup4\n        /* \"#utility.yul\":7317:7331   */\n      add\n        /* \"#utility.yul\":7313:7341   */\n      and\n        /* \"#utility.yul\":7303:7341   */\n      swap1\n      pop\n        /* \"#utility.yul\":7245:7347   */\n      swap2\n      swap1\n      pop\n      jump\t// out\n        /* \"#utility.yul\":7353:7475   */\n    tag_116:\n        /* \"#utility.yul\":7426:7450   */\n      tag_198\n        /* \"#utility.yul\":7444:7449   */\n      dup2\n        /* \"#utility.yul\":7426:7450   */\n      tag_155\n      jump\t// in\n    tag_198:\n        /* \"#utility.yul\":7419:7424   */\n      dup2\n        /* \"#utility.yul\":7416:7451   */\n      eq\n        /* \"#utility.yul\":7406:7469   */\n      tag_199\n      jumpi\n        /* \"#utility.yul\":7465:7466   */\n      0x00\n        /* \"#utility.yul\":7462:7463   */\n      dup1\n        /* \"#utility.yul\":7455:7467   */\n      revert\n        /* \"#utility.yul\":7406:7469   */\n    tag_199:\n        /* \"#utility.yul\":7353:7475   */\n      pop\n      jump\t// out\n\n    auxdata: 0xa2646970667358221220ca48b5dbf284e100202379350641ed0374def2e2149b1b3bfb2521194d8a824564736f6c63430008070033\n}\n","bytecode":{"linkReferences":{},"object":"60806040523480156200001157600080fd5b50604051620012b0380380620012b0833981810160405281019062000037919062000306565b81600090805190602001906200004f929190620001d8565b50806001908051906020019062000068929190620001d8565b5033600260006101000a81548173ffffffffffffffffffffffffffffffffffffffff021916908373ffffffffffffffffffffffffffffffffffffffff160217905550600060405180606001604052808481526020018381526020013373ffffffffffffffffffffffffffffffffffffffff1681525090506003819080600181540180825580915050600190039060005260206000209060030201600090919091909150600082015181600001908051906020019062000129929190620001d8565b50602082015181600101908051906020019062000148929190620001d8565b5060408201518160020160006101000a81548173ffffffffffffffffffffffffffffffffffffffff021916908373ffffffffffffffffffffffffffffffffffffffff16021790555050507f74235dd15b991da7e3c5803f71b75cfb8aded023d34805f3a7e16961793ef823838333604051620001c793929190620003dd565b60405180910390a1505050620005fc565b828054620001e6906200050d565b90600052602060002090601f0160209004810192826200020a576000855562000256565b82601f106200022557805160ff191683800117855562000256565b8280016001018555821562000256579182015b828111156200025557825182559160200191906001019062000238565b5b50905062000265919062000269565b5090565b5b80821115620002845760008160009055506001016200026a565b5090565b60006200029f620002998462000451565b62000428565b905082815260208101848484011115620002be57620002bd620005dc565b5b620002cb848285620004d7565b509392505050565b600082601f830112620002eb57620002ea620005d7565b5b8151620002fd84826020860162000288565b91505092915050565b6000806040838503121562000320576200031f620005e6565b5b600083015167ffffffffffffffff811115620003415762000340620005e1565b5b6200034f85828601620002d3565b925050602083015167ffffffffffffffff811115620003735762000372620005e1565b5b6200038185828601620002d3565b9150509250929050565b6200039681620004a3565b82525050565b6000620003a98262000487565b620003b5818562000492565b9350620003c7818560208601620004d7565b620003d281620005eb565b840191505092915050565b60006060820190508181036000830152620003f981866200039c565b905081810360208301526200040f81856200039c565b90506200042060408301846200038b565b949350505050565b60006200043462000447565b905062000442828262000543565b919050565b6000604051905090565b600067ffffffffffffffff8211156200046f576200046e620005a8565b5b6200047a82620005eb565b9050602081019050919050565b600081519050919050565b600082825260208201905092915050565b6000620004b082620004b7565b9050919050565b600073ffffffffffffffffffffffffffffffffffffffff82169050919050565b60005b83811015620004f7578082015181840152602081019050620004da565b8381111562000507576000848401525b50505050565b600060028204905060018216806200052657607f821691505b602082108114156200053d576200053c62000579565b5b50919050565b6200054e82620005eb565b810181811067ffffffffffffffff8211171562000570576200056f620005a8565b5b80604052505050565b7f4e487b7100000000000000000000000000000000000000000000000000000000600052602260045260246000fd5b7f4e487b7100000000000000000000000000000000000000000000000000000000600052604160045260246000fd5b600080fd5b600080fd5b600080fd5b600080fd5b6000601f19601f8301169050919050565b610ca4806200060c6000396000f3fe608060405234801561001057600080fd5b506004361061007d5760003560e01c8063a7a38f0b1161005b578063a7a38f0b146100de578063e21f37ce14610110578063ea08629b1461012e578063f3ccaac01461014a5761007d565b806302d05d3f146100825780635478f468146100a05780639850fedb146100be575b600080fd5b61008a610168565b6040516100979190610a4c565b60405180910390f35b6100a861018e565b6040516100b59190610b17565b60405180910390f35b6100c661019b565b6040516100d593929190610ad2565b60405180910390f35b6100f860048036038101906100f3919061099b565b6102e9565b60405161010793929190610ad2565b60405180910390f35b610118610453565b6040516101259190610ab0565b60405180910390f35b6101486004803603810190610143919061091a565b6104e1565b005b6101526106f8565b60405161015f9190610ab0565b60405180910390f35b600260009054906101000a900473ffffffffffffffffffffffffffffffffffffffff1681565b6000600380549050905090565b6060806000806001600260009054906101000a900473ffffffffffffffffffffffffffffffffffffffff168280546101d290610bcc565b80601f01602080910402602001604051908101604052809291908181526020018280546101fe90610bcc565b801561024b5780601f106102205761010080835404028352916020019161024b565b820191906000526020600020905b81548152906001019060200180831161022e57829003601f168201915b5050505050925081805461025e90610bcc565b80601f016020809104026020016040519081016040528092919081815260200182805461028a90610bcc565b80156102d75780601f106102ac576101008083540402835291602001916102d7565b820191906000526020600020905b8154815290600101906020018083116102ba57829003601f168201915b50505050509150925092509250909192565b600381815481106102f957600080fd5b906000526020600020906003020160009150905080600001805461031c90610bcc565b80601f016020809104026020016040519081016040528092919081815260200182805461034890610bcc565b80156103955780601f1061036a57610100808354040283529160200191610395565b820191906000526020600020905b81548152906001019060200180831161037857829003601f168201915b5050505050908060010180546103aa90610bcc565b80601f01602080910402602001604051908101604052809291908181526020018280546103d690610bcc565b80156104235780601f106103f857610100808354040283529160200191610423565b820191906000526020600020905b81548152906001019060200180831161040657829003601f168201915b5050505050908060020160009054906101000a900473ffffffffffffffffffffffffffffffffffffffff16905083565b6000805461046090610bcc565b80601f016020809104026020016040519081016040528092919081815260200182805461048c90610bcc565b80156104d95780601f106104ae576101008083540402835291602001916104d9565b820191906000526020600020905b8154815290600101906020018083116104bc57829003601f168201915b505050505081565b8383600091906104f2929190610786565b50818160019190610504929190610786565b5033600260006101000a81548173ffffffffffffffffffffffffffffffffffffffff021916908373ffffffffffffffffffffffffffffffffffffffff1602179055506000604051806060016040528086868080601f016020809104026020016040519081016040528093929190818152602001838380828437600081840152601f19601f82011690508083019250505050505050815260200184848080601f016020809104026020016040519081016040528093929190818152602001838380828437600081840152601f19601f8201169050808301925050505050505081526020013373ffffffffffffffffffffffffffffffffffffffff1681525090506003819080600181540180825580915050600190039060005260206000209060030201600090919091909150600082015181600001908051906020019061064b92919061080c565b50602082015181600101908051906020019061066892919061080c565b5060408201518160020160006101000a81548173ffffffffffffffffffffffffffffffffffffffff021916908373ffffffffffffffffffffffffffffffffffffffff16021790555050507f74235dd15b991da7e3c5803f71b75cfb8aded023d34805f3a7e16961793ef82385858585336040516106e9959493929190610a67565b60405180910390a15050505050565b6001805461070590610bcc565b80601f016020809104026020016040519081016040528092919081815260200182805461073190610bcc565b801561077e5780601f106107535761010080835404028352916020019161077e565b820191906000526020600020905b81548152906001019060200180831161076157829003601f168201915b505050505081565b82805461079290610bcc565b90600052602060002090601f0160209004810192826107b457600085556107fb565b82601f106107cd57803560ff19168380011785556107fb565b828001600101855582156107fb579182015b828111156107fa5782358255916020019190600101906107df565b5b5090506108089190610892565b5090565b82805461081890610bcc565b90600052602060002090601f01602090048101928261083a5760008555610881565b82601f1061085357805160ff1916838001178555610881565b82800160010185558215610881579182015b82811115610880578251825591602001919060010190610865565b5b50905061088e9190610892565b5090565b5b808211156108ab576000816000905550600101610893565b5090565b60008083601f8401126108c5576108c4610c32565b5b8235905067ffffffffffffffff8111156108e2576108e1610c2d565b5b6020830191508360018202830111156108fe576108fd610c37565b5b9250929050565b60008135905061091481610c57565b92915050565b6000806000806040858703121561093457610933610c41565b5b600085013567ffffffffffffffff81111561095257610951610c3c565b5b61095e878288016108af565b9450945050602085013567ffffffffffffffff81111561098157610980610c3c565b5b61098d878288016108af565b925092505092959194509250565b6000602082840312156109b1576109b0610c41565b5b60006109bf84828501610905565b91505092915050565b6109d181610b4e565b82525050565b60006109e38385610b3d565b93506109f0838584610b8a565b6109f983610c46565b840190509392505050565b6000610a0f82610b32565b610a198185610b3d565b9350610a29818560208601610b99565b610a3281610c46565b840191505092915050565b610a4681610b80565b82525050565b6000602082019050610a6160008301846109c8565b92915050565b60006060820190508181036000830152610a828187896109d7565b90508181036020830152610a978185876109d7565b9050610aa660408301846109c8565b9695505050505050565b60006020820190508181036000830152610aca8184610a04565b905092915050565b60006060820190508181036000830152610aec8186610a04565b90508181036020830152610b008185610a04565b9050610b0f60408301846109c8565b949350505050565b6000602082019050610b2c6000830184610a3d565b92915050565b600081519050919050565b600082825260208201905092915050565b6000610b5982610b60565b9050919050565b600073ffffffffffffffffffffffffffffffffffffffff82169050919050565b6000819050919050565b82818337600083830152505050565b60005b83811015610bb7578082015181840152602081019050610b9c565b83811115610bc6576000848401525b50505050565b60006002820490506001821680610be457607f821691505b60208210811415610bf857610bf7610bfe565b5b50919050565b7f4e487b7100000000000000000000000000000000000000000000000000000000600052602260045260246000fd5b600080fd5b600080fd5b600080fd5b600080fd5b600080fd5b6000601f19601f8301169050919050565b610c6081610b80565b8114610c6b57600080fd5b5056fea2646970667358221220ca48b5dbf284e100202379350641ed0374def2e2149b1b3bfb2521194d8a824564736f6c63430008070033","opcodes":"PUSH1 0x80 PUSH1 0x40 MSTORE CALLVALUE DUP1 ISZERO PUSH3 0x11 JUMPI PUSH1 0x0 DUP1 REVERT JUMPDEST POP PUSH1 0x40 MLOAD PUSH3 0x12B0 CODESIZE SUB DUP1 PUSH3 0x12B0 DUP4 CODECOPY DUP2 DUP2 ADD PUSH1 0x40 MSTORE DUP2 ADD SWAP1 PUSH3 0x37 SWAP2 SWAP1 PUSH3 0x306 JUMP JUMPDEST DUP2 PUSH1 0x0 SWAP1 DUP1 MLOAD SWAP1 PUSH1 0x20 ADD SWAP1 PUSH3 0x4F SWAP3 SWAP2 SWAP1 PUSH3 0x1D8 JUMP JUMPDEST POP DUP1 PUSH1 0x1 SWAP1 DUP1 MLOAD SWAP1 PUSH1 0x20 ADD SWAP1 PUSH3 0x68 SWAP3 SWAP2 SWAP1 PUSH3 0x1D8 JUMP JUMPDEST POP CALLER PUSH1 0x2 PUSH1 0x0 PUSH2 0x100 EXP DUP2 SLOAD DUP2 PUSH20 0xFFFFFFFFFFFFFFFFFFFFFFFFFFFFFFFFFFFFFFFF MUL NOT AND SWAP1 DUP4 PUSH20 0xFFFFFFFFFFFFFFFFFFFFFFFFFFFFFFFFFFFFFFFF AND MUL OR SWAP1 SSTORE POP PUSH1 0x0 PUSH1 0x40 MLOAD DUP1 PUSH1 0x60 ADD PUSH1 0x40 MSTORE DUP1 DUP5 DUP2 MSTORE PUSH1 0x20 ADD DUP4 DUP2 MSTORE PUSH1 0x20 ADD CALLER PUSH20 0xFFFFFFFFFFFFFFFFFFFFFFFFFFFFFFFFFFFFFFFF AND DUP2 MSTORE POP SWAP1 POP PUSH1 0x3 DUP2 SWAP1 DUP1 PUSH1 0x1 DUP2 SLOAD ADD DUP1 DUP3 SSTORE DUP1 SWAP2 POP POP PUSH1 0x1 SWAP1 SUB SWAP1 PUSH1 0x0 MSTORE PUSH1 0x20 PUSH1 0x0 KECCAK256 SWAP1 PUSH1 0x3 MUL ADD PUSH1 0x0 SWAP1 SWAP2 SWAP1 SWAP2 SWAP1 SWAP2 POP PUSH1 0x0 DUP3 ADD MLOAD DUP2 PUSH1 0x0 ADD SWAP1 DUP1 MLOAD SWAP1 PUSH1 0x20 ADD SWAP1 PUSH3 0x129 SWAP3 SWAP2 SWAP1 PUSH3 0x1D8 JUMP JUMPDEST POP PUSH1 0x20 DUP3 ADD MLOAD DUP2 PUSH1 0x1 ADD SWAP1 DUP1 MLOAD SWAP1 PUSH1 0x20 ADD SWAP1 PUSH3 0x148 SWAP3 SWAP2 SWAP1 PUSH3 0x1D8 JUMP JUMPDEST POP PUSH1 0x40 DUP3 ADD MLOAD DUP2 PUSH1 0x2 ADD PUSH1 0x0 PUSH2 0x100 EXP DUP2 SLOAD DUP2 PUSH20 0xFFFFFFFFFFFFFFFFFFFFFFFFFFFFFFFFFFFFFFFF MUL NOT AND SWAP1 DUP4 PUSH20 0xFFFFFFFFFFFFFFFFFFFFFFFFFFFFFFFFFFFFFFFF AND MUL OR SWAP1 SSTORE POP POP POP PUSH32 0x74235DD15B991DA7E3C5803F71B75CFB8ADED023D34805F3A7E16961793EF823 DUP4 DUP4 CALLER PUSH1 0x40 MLOAD PUSH3 0x1C7 SWAP4 SWAP3 SWAP2 SWAP1 PUSH3 0x3DD JUMP JUMPDEST PUSH1 0x40 MLOAD DUP1 SWAP2 SUB SWAP1 LOG1 POP POP POP PUSH3 0x5FC JUMP JUMPDEST DUP3 DUP1 SLOAD PUSH3 0x1E6 SWAP1 PUSH3 0x50D JUMP JUMPDEST SWAP1 PUSH1 0x0 MSTORE PUSH1 0x20 PUSH1 0x0 KECCAK256 SWAP1 PUSH1 0x1F ADD PUSH1 0x20 SWAP1 DIV DUP2 ADD SWAP3 DUP3 PUSH3 0x20A JUMPI PUSH1 0x0 DUP6 SSTORE PUSH3 0x256 JUMP JUMPDEST DUP3 PUSH1 0x1F LT PUSH3 0x225 JUMPI DUP1 MLOAD PUSH1 0xFF NOT AND DUP4 DUP1 ADD OR DUP6 SSTORE PUSH3 0x256 JUMP JUMPDEST DUP3 DUP1 ADD PUSH1 0x1 ADD DUP6 SSTORE DUP3 ISZERO PUSH3 0x256 JUMPI SWAP2 DUP3 ADD JUMPDEST DUP3 DUP2 GT ISZERO PUSH3 0x255 JUMPI DUP3 MLOAD DUP3 SSTORE SWAP2 PUSH1 0x20 ADD SWAP2 SWAP1 PUSH1 0x1 ADD SWAP1 PUSH3 0x238 JUMP JUMPDEST JUMPDEST POP SWAP1 POP PUSH3 0x265 SWAP2 SWAP1 PUSH3 0x269 JUMP JUMPDEST POP SWAP1 JUMP JUMPDEST JUMPDEST DUP1 DUP3 GT ISZERO PUSH3 0x284 JUMPI PUSH1 0x0 DUP2 PUSH1 0x0 SWAP1 SSTORE POP PUSH1 0x1 ADD PUSH3 0x26A JUMP JUMPDEST POP SWAP1 JUMP JUMPDEST PUSH1 0x0 PUSH3 0x29F PUSH3 0x299 DUP5 PUSH3 0x451 JUMP JUMPDEST PUSH3 0x428 JUMP JUMPDEST SWAP1 POP DUP3 DUP2 MSTORE PUSH1 0x20 DUP2 ADD DUP5 DUP5 DUP5 ADD GT ISZERO PUSH3 0x2BE JUMPI PUSH3 0x2BD PUSH3 0x5DC JUMP JUMPDEST JUMPDEST PUSH3 0x2CB DUP5 DUP3 DUP6 PUSH3 0x4D7 JUMP JUMPDEST POP SWAP4 SWAP3 POP POP POP JUMP JUMPDEST PUSH1 0x0 DUP3 PUSH1 0x1F DUP4 ADD SLT PUSH3 0x2EB JUMPI PUSH3 0x2EA PUSH3 0x5D7 JUMP JUMPDEST JUMPDEST DUP2 MLOAD PUSH3 0x2FD DUP5 DUP3 PUSH1 0x20 DUP7 ADD PUSH3 0x288 JUMP JUMPDEST SWAP2 POP POP SWAP3 SWAP2 POP POP JUMP JUMPDEST PUSH1 0x0 DUP1 PUSH1 0x40 DUP4 DUP6 SUB SLT ISZERO PUSH3 0x320 JUMPI PUSH3 0x31F PUSH3 0x5E6 JUMP JUMPDEST JUMPDEST PUSH1 0x0 DUP4 ADD MLOAD PUSH8 0xFFFFFFFFFFFFFFFF DUP2 GT ISZERO PUSH3 0x341 JUMPI PUSH3 0x340 PUSH3 0x5E1 JUMP JUMPDEST JUMPDEST PUSH3 0x34F DUP6 DUP3 DUP7 ADD PUSH3 0x2D3 JUMP JUMPDEST SWAP3 POP POP PUSH1 0x20 DUP4 ADD MLOAD PUSH8 0xFFFFFFFFFFFFFFFF DUP2 GT ISZERO PUSH3 0x373 JUMPI PUSH3 0x372 PUSH3 0x5E1 JUMP JUMPDEST JUMPDEST PUSH3 0x381 DUP6 DUP3 DUP7 ADD PUSH3 0x2D3 JUMP JUMPDEST SWAP2 POP POP SWAP3 POP SWAP3 SWAP1 POP JUMP JUMPDEST PUSH3 0x396 DUP2 PUSH3 0x4A3 JUMP JUMPDEST DUP3 MSTORE POP POP JUMP JUMPDEST PUSH1 0x0 PUSH3 0x3A9 DUP3 PUSH3 0x487 JUMP JUMPDEST PUSH3 0x3B5 DUP2 DUP6 PUSH3 0x492 JUMP JUMPDEST SWAP4 POP PUSH3 0x3C7 DUP2 DUP6 PUSH1 0x20 DUP7 ADD PUSH3 0x4D7 JUMP JUMPDEST PUSH3 0x3D2 DUP2 PUSH3 0x5EB JUMP JUMPDEST DUP5 ADD SWAP2 POP POP SWAP3 SWAP2 POP POP JUMP JUMPDEST PUSH1 0x0 PUSH1 0x60 DUP3 ADD SWAP1 POP DUP2 DUP2 SUB PUSH1 0x0 DUP4 ADD MSTORE PUSH3 0x3F9 DUP2 DUP7 PUSH3 0x39C JUMP JUMPDEST SWAP1 POP DUP2 DUP2 SUB PUSH1 0x20 DUP4 ADD MSTORE PUSH3 0x40F DUP2 DUP6 PUSH3 0x39C JUMP JUMPDEST SWAP1 POP PUSH3 0x420 PUSH1 0x40 DUP4 ADD DUP5 PUSH3 0x38B JUMP JUMPDEST SWAP5 SWAP4 POP POP POP POP JUMP JUMPDEST PUSH1 0x0 PUSH3 0x434 PUSH3 0x447 JUMP JUMPDEST SWAP1 POP PUSH3 0x442 DUP3 DUP3 PUSH3 0x543 JUMP JUMPDEST SWAP2 SWAP1 POP JUMP JUMPDEST PUSH1 0x0 PUSH1 0x40 MLOAD SWAP1 POP SWAP1 JUMP JUMPDEST PUSH1 0x0 PUSH8 0xFFFFFFFFFFFFFFFF DUP3 GT ISZERO PUSH3 0x46F JUMPI PUSH3 0x46E PUSH3 0x5A8 JUMP JUMPDEST JUMPDEST PUSH3 0x47A DUP3 PUSH3 0x5EB JUMP JUMPDEST SWAP1 POP PUSH1 0x20 DUP2 ADD SWAP1 POP SWAP2 SWAP1 POP JUMP JUMPDEST PUSH1 0x0 DUP2 MLOAD SWAP1 POP SWAP2 SWAP1 POP JUMP JUMPDEST PUSH1 0x0 DUP3 DUP3 MSTORE PUSH1 0x20 DUP3 ADD SWAP1 POP SWAP3 SWAP2 POP POP JUMP JUMPDEST PUSH1 0x0 PUSH3 0x4B0 DUP3 PUSH3 0x4B7 JUMP JUMPDEST SWAP1 POP SWAP2 SWAP1 POP JUMP JUMPDEST PUSH1 0x0 PUSH20 0xFFFFFFFFFFFFFFFFFFFFFFFFFFFFFFFFFFFFFFFF DUP3 AND SWAP1 POP SWAP2 SWAP1 POP JUMP JUMPDEST PUSH1 0x0 JUMPDEST DUP4 DUP2 LT ISZERO PUSH3 0x4F7 JUMPI DUP1 DUP3 ADD MLOAD DUP2 DUP5 ADD MSTORE PUSH1 0x20 DUP2 ADD SWAP1 POP PUSH3 0x4DA JUMP JUMPDEST DUP4 DUP2 GT ISZERO PUSH3 0x507 JUMPI PUSH1 0x0 DUP5 DUP5 ADD MSTORE JUMPDEST POP POP POP POP JUMP JUMPDEST PUSH1 0x0 PUSH1 0x2 DUP3 DIV SWAP1 POP PUSH1 0x1 DUP3 AND DUP1 PUSH3 0x526 JUMPI PUSH1 0x7F DUP3 AND SWAP2 POP JUMPDEST PUSH1 0x20 DUP3 LT DUP2 EQ ISZERO PUSH3 0x53D JUMPI PUSH3 0x53C PUSH3 0x579 JUMP JUMPDEST JUMPDEST POP SWAP2 SWAP1 POP JUMP JUMPDEST PUSH3 0x54E DUP3 PUSH3 0x5EB JUMP JUMPDEST DUP2 ADD DUP2 DUP2 LT PUSH8 0xFFFFFFFFFFFFFFFF DUP3 GT OR ISZERO PUSH3 0x570 JUMPI PUSH3 0x56F PUSH3 0x5A8 JUMP JUMPDEST JUMPDEST DUP1 PUSH1 0x40 MSTORE POP POP POP JUMP JUMPDEST PUSH32 0x4E487B7100000000000000000000000000000000000000000000000000000000 PUSH1 0x0 MSTORE PUSH1 0x22 PUSH1 0x4 MSTORE PUSH1 0x24 PUSH1 0x0 REVERT JUMPDEST PUSH32 0x4E487B7100000000000000000000000000000000000000000000000000000000 PUSH1 0x0 MSTORE PUSH1 0x41 PUSH1 0x4 MSTORE PUSH1 0x24 PUSH1 0x0 REVERT JUMPDEST PUSH1 0x0 DUP1 REVERT JUMPDEST PUSH1 0x0 DUP1 REVERT JUMPDEST PUSH1 0x0 DUP1 REVERT JUMPDEST PUSH1 0x0 DUP1 REVERT JUMPDEST PUSH1 0x0 PUSH1 0x1F NOT PUSH1 0x1F DUP4 ADD AND SWAP1 POP SWAP2 SWAP1 POP JUMP JUMPDEST PUSH2 0xCA4 DUP1 PUSH3 0x60C PUSH1 0x0 CODECOPY PUSH1 0x0 RETURN INVALID PUSH1 0x80 PUSH1 0x40 MSTORE CALLVALUE DUP1 ISZERO PUSH2 0x10 JUMPI PUSH1 0x0 DUP1 REVERT JUMPDEST POP PUSH1 0x4 CALLDATASIZE LT PUSH2 0x7D JUMPI PUSH1 0x0 CALLDATALOAD PUSH1 0xE0 SHR DUP1 PUSH4 0xA7A38F0B GT PUSH2 0x5B JUMPI DUP1 PUSH4 0xA7A38F0B EQ PUSH2 0xDE JUMPI DUP1 PUSH4 0xE21F37CE EQ PUSH2 0x110 JUMPI DUP1 PUSH4 0xEA08629B EQ PUSH2 0x12E JUMPI DUP1 PUSH4 0xF3CCAAC0 EQ PUSH2 0x14A JUMPI PUSH2 0x7D JUMP JUMPDEST DUP1 PUSH4 0x2D05D3F EQ PUSH2 0x82 JUMPI DUP1 PUSH4 0x5478F468 EQ PUSH2 0xA0 JUMPI DUP1 PUSH4 0x9850FEDB EQ PUSH2 0xBE JUMPI JUMPDEST PUSH1 0x0 DUP1 REVERT JUMPDEST PUSH2 0x8A PUSH2 0x168 JUMP JUMPDEST PUSH1 0x40 MLOAD PUSH2 0x97 SWAP2 SWAP1 PUSH2 0xA4C JUMP JUMPDEST PUSH1 0x40 MLOAD DUP1 SWAP2 SUB SWAP1 RETURN JUMPDEST PUSH2 0xA8 PUSH2 0x18E JUMP JUMPDEST PUSH1 0x40 MLOAD PUSH2 0xB5 SWAP2 SWAP1 PUSH2 0xB17 JUMP JUMPDEST PUSH1 0x40 MLOAD DUP1 SWAP2 SUB SWAP1 RETURN JUMPDEST PUSH2 0xC6 PUSH2 0x19B JUMP JUMPDEST PUSH1 0x40 MLOAD PUSH2 0xD5 SWAP4 SWAP3 SWAP2 SWAP1 PUSH2 0xAD2 JUMP JUMPDEST PUSH1 0x40 MLOAD DUP1 SWAP2 SUB SWAP1 RETURN JUMPDEST PUSH2 0xF8 PUSH1 0x4 DUP1 CALLDATASIZE SUB DUP2 ADD SWAP1 PUSH2 0xF3 SWAP2 SWAP1 PUSH2 0x99B JUMP JUMPDEST PUSH2 0x2E9 JUMP JUMPDEST PUSH1 0x40 MLOAD PUSH2 0x107 SWAP4 SWAP3 SWAP2 SWAP1 PUSH2 0xAD2 JUMP JUMPDEST PUSH1 0x40 MLOAD DUP1 SWAP2 SUB SWAP1 RETURN JUMPDEST PUSH2 0x118 PUSH2 0x453 JUMP JUMPDEST PUSH1 0x40 MLOAD PUSH2 0x125 SWAP2 SWAP1 PUSH2 0xAB0 JUMP JUMPDEST PUSH1 0x40 MLOAD DUP1 SWAP2 SUB SWAP1 RETURN JUMPDEST PUSH2 0x148 PUSH1 0x4 DUP1 CALLDATASIZE SUB DUP2 ADD SWAP1 PUSH2 0x143 SWAP2 SWAP1 PUSH2 0x91A JUMP JUMPDEST PUSH2 0x4E1 JUMP JUMPDEST STOP JUMPDEST PUSH2 0x152 PUSH2 0x6F8 JUMP JUMPDEST PUSH1 0x40 MLOAD PUSH2 0x15F SWAP2 SWAP1 PUSH2 0xAB0 JUMP JUMPDEST PUSH1 0x40 MLOAD DUP1 SWAP2 SUB SWAP1 RETURN JUMPDEST PUSH1 0x2 PUSH1 0x0 SWAP1 SLOAD SWAP1 PUSH2 0x100 EXP SWAP1 DIV PUSH20 0xFFFFFFFFFFFFFFFFFFFFFFFFFFFFFFFFFFFFFFFF AND DUP2 JUMP JUMPDEST PUSH1 0x0 PUSH1 0x3 DUP1 SLOAD SWAP1 POP SWAP1 POP SWAP1 JUMP JUMPDEST PUSH1 0x60 DUP1 PUSH1 0x0 DUP1 PUSH1 0x1 PUSH1 0x2 PUSH1 0x0 SWAP1 SLOAD SWAP1 PUSH2 0x100 EXP SWAP1 DIV PUSH20 0xFFFFFFFFFFFFFFFFFFFFFFFFFFFFFFFFFFFFFFFF AND DUP3 DUP1 SLOAD PUSH2 0x1D2 SWAP1 PUSH2 0xBCC JUMP JUMPDEST DUP1 PUSH1 0x1F ADD PUSH1 0x20 DUP1 SWAP2 DIV MUL PUSH1 0x20 ADD PUSH1 0x40 MLOAD SWAP1 DUP2 ADD PUSH1 0x40 MSTORE DUP1 SWAP3 SWAP2 SWAP1 DUP2 DUP2 MSTORE PUSH1 0x20 ADD DUP3 DUP1 SLOAD PUSH2 0x1FE SWAP1 PUSH2 0xBCC JUMP JUMPDEST DUP1 ISZERO PUSH2 0x24B JUMPI DUP1 PUSH1 0x1F LT PUSH2 0x220 JUMPI PUSH2 0x100 DUP1 DUP4 SLOAD DIV MUL DUP4 MSTORE SWAP2 PUSH1 0x20 ADD SWAP2 PUSH2 0x24B JUMP JUMPDEST DUP3 ADD SWAP2 SWAP1 PUSH1 0x0 MSTORE PUSH1 0x20 PUSH1 0x0 KECCAK256 SWAP1 JUMPDEST DUP2 SLOAD DUP2 MSTORE SWAP1 PUSH1 0x1 ADD SWAP1 PUSH1 0x20 ADD DUP1 DUP4 GT PUSH2 0x22E JUMPI DUP3 SWAP1 SUB PUSH1 0x1F AND DUP3 ADD SWAP2 JUMPDEST POP POP POP POP POP SWAP3 POP DUP2 DUP1 SLOAD PUSH2 0x25E SWAP1 PUSH2 0xBCC JUMP JUMPDEST DUP1 PUSH1 0x1F ADD PUSH1 0x20 DUP1 SWAP2 DIV MUL PUSH1 0x20 ADD PUSH1 0x40 MLOAD SWAP1 DUP2 ADD PUSH1 0x40 MSTORE DUP1 SWAP3 SWAP2 SWAP1 DUP2 DUP2 MSTORE PUSH1 0x20 ADD DUP3 DUP1 SLOAD PUSH2 0x28A SWAP1 PUSH2 0xBCC JUMP JUMPDEST DUP1 ISZERO PUSH2 0x2D7 JUMPI DUP1 PUSH1 0x1F LT PUSH2 0x2AC JUMPI PUSH2 0x100 DUP1 DUP4 SLOAD DIV MUL DUP4 MSTORE SWAP2 PUSH1 0x20 ADD SWAP2 PUSH2 0x2D7 JUMP JUMPDEST DUP3 ADD SWAP2 SWAP1 PUSH1 0x0 MSTORE PUSH1 0x20 PUSH1 0x0 KECCAK256 SWAP1 JUMPDEST DUP2 SLOAD DUP2 MSTORE SWAP1 PUSH1 0x1 ADD SWAP1 PUSH1 0x20 ADD DUP1 DUP4 GT PUSH2 0x2BA JUMPI DUP3 SWAP1 SUB PUSH1 0x1F AND DUP3 ADD SWAP2 JUMPDEST POP POP POP POP POP SWAP2 POP SWAP3 POP SWAP3 POP SWAP3 POP SWAP1 SWAP2 SWAP3 JUMP JUMPDEST PUSH1 0x3 DUP2 DUP2 SLOAD DUP2 LT PUSH2 0x2F9 JUMPI PUSH1 0x0 DUP1 REVERT JUMPDEST SWAP1 PUSH1 0x0 MSTORE PUSH1 0x20 PUSH1 0x0 KECCAK256 SWAP1 PUSH1 0x3 MUL ADD PUSH1 0x0 SWAP2 POP SWAP1 POP DUP1 PUSH1 0x0 ADD DUP1 SLOAD PUSH2 0x31C SWAP1 PUSH2 0xBCC JUMP JUMPDEST DUP1 PUSH1 0x1F ADD PUSH1 0x20 DUP1 SWAP2 DIV MUL PUSH1 0x20 ADD PUSH1 0x40 MLOAD SWAP1 DUP2 ADD PUSH1 0x40 MSTORE DUP1 SWAP3 SWAP2 SWAP1 DUP2 DUP2 MSTORE PUSH1 0x20 ADD DUP3 DUP1 SLOAD PUSH2 0x348 SWAP1 PUSH2 0xBCC JUMP JUMPDEST DUP1 ISZERO PUSH2 0x395 JUMPI DUP1 PUSH1 0x1F LT PUSH2 0x36A JUMPI PUSH2 0x100 DUP1 DUP4 SLOAD DIV MUL DUP4 MSTORE SWAP2 PUSH1 0x20 ADD SWAP2 PUSH2 0x395 JUMP JUMPDEST DUP3 ADD SWAP2 SWAP1 PUSH1 0x0 MSTORE PUSH1 0x20 PUSH1 0x0 KECCAK256 SWAP1 JUMPDEST DUP2 SLOAD DUP2 MSTORE SWAP1 PUSH1 0x1 ADD SWAP1 PUSH1 0x20 ADD DUP1 DUP4 GT PUSH2 0x378 JUMPI DUP3 SWAP1 SUB PUSH1 0x1F AND DUP3 ADD SWAP2 JUMPDEST POP POP POP POP POP SWAP1 DUP1 PUSH1 0x1 ADD DUP1 SLOAD PUSH2 0x3AA SWAP1 PUSH2 0xBCC JUMP JUMPDEST DUP1 PUSH1 0x1F ADD PUSH1 0x20 DUP1 SWAP2 DIV MUL PUSH1 0x20 ADD PUSH1 0x40 MLOAD SWAP1 DUP2 ADD PUSH1 0x40 MSTORE DUP1 SWAP3 SWAP2 SWAP1 DUP2 DUP2 MSTORE PUSH1 0x20 ADD DUP3 DUP1 SLOAD PUSH2 0x3D6 SWAP1 PUSH2 0xBCC JUMP JUMPDEST DUP1 ISZERO PUSH2 0x423 JUMPI DUP1 PUSH1 0x1F LT PUSH2 0x3F8 JUMPI PUSH2 0x100 DUP1 DUP4 SLOAD DIV MUL DUP4 MSTORE SWAP2 PUSH1 0x20 ADD SWAP2 PUSH2 0x423 JUMP JUMPDEST DUP3 ADD SWAP2 SWAP1 PUSH1 0x0 MSTORE PUSH1 0x20 PUSH1 0x0 KECCAK256 SWAP1 JUMPDEST DUP2 SLOAD DUP2 MSTORE SWAP1 PUSH1 0x1 ADD SWAP1 PUSH1 0x20 ADD DUP1 DUP4 GT PUSH2 0x406 JUMPI DUP3 SWAP1 SUB PUSH1 0x1F AND DUP3 ADD SWAP2 JUMPDEST POP POP POP POP POP SWAP1 DUP1 PUSH1 0x2 ADD PUSH1 0x0 SWAP1 SLOAD SWAP1 PUSH2 0x100 EXP SWAP1 DIV PUSH20 0xFFFFFFFFFFFFFFFFFFFFFFFFFFFFFFFFFFFFFFFF AND SWAP1 POP DUP4 JUMP JUMPDEST PUSH1 0x0 DUP1 SLOAD PUSH2 0x460 SWAP1 PUSH2 0xBCC JUMP JUMPDEST DUP1 PUSH1 0x1F ADD PUSH1 0x20 DUP1 SWAP2 DIV MUL PUSH1 0x20 ADD PUSH1 0x40 MLOAD SWAP1 DUP2 ADD PUSH1 0x40 MSTORE DUP1 SWAP3 SWAP2 SWAP1 DUP2 DUP2 MSTORE PUSH1 0x20 ADD DUP3 DUP1 SLOAD PUSH2 0x48C SWAP1 PUSH2 0xBCC JUMP JUMPDEST DUP1 ISZERO PUSH2 0x4D9 JUMPI DUP1 PUSH1 0x1F LT PUSH2 0x4AE JUMPI PUSH2 0x100 DUP1 DUP4 SLOAD DIV MUL DUP4 MSTORE SWAP2 PUSH1 0x20 ADD SWAP2 PUSH2 0x4D9 JUMP JUMPDEST DUP3 ADD SWAP2 SWAP1 PUSH1 0x0 MSTORE PUSH1 0x20 PUSH1 0x0 KECCAK256 SWAP1 JUMPDEST DUP2 SLOAD DUP2 MSTORE SWAP1 PUSH1 0x1 ADD SWAP1 PUSH1 0x20 ADD DUP1 DUP4 GT PUSH2 0x4BC JUMPI DUP3 SWAP1 SUB PUSH1 0x1F AND DUP3 ADD SWAP2 JUMPDEST POP POP POP POP POP DUP2 JUMP JUMPDEST DUP4 DUP4 PUSH1 0x0 SWAP2 SWAP1 PUSH2 0x4F2 SWAP3 SWAP2 SWAP1 PUSH2 0x786 JUMP JUMPDEST POP DUP2 DUP2 PUSH1 0x1 SWAP2 SWAP1 PUSH2 0x504 SWAP3 SWAP2 SWAP1 PUSH2 0x786 JUMP JUMPDEST POP CALLER PUSH1 0x2 PUSH1 0x0 PUSH2 0x100 EXP DUP2 SLOAD DUP2 PUSH20 0xFFFFFFFFFFFFFFFFFFFFFFFFFFFFFFFFFFFFFFFF MUL NOT AND SWAP1 DUP4 PUSH20 0xFFFFFFFFFFFFFFFFFFFFFFFFFFFFFFFFFFFFFFFF AND MUL OR SWAP1 SSTORE POP PUSH1 0x0 PUSH1 0x40 MLOAD DUP1 PUSH1 0x60 ADD PUSH1 0x40 MSTORE DUP1 DUP7 DUP7 DUP1 DUP1 PUSH1 0x1F ADD PUSH1 0x20 DUP1 SWAP2 DIV MUL PUSH1 0x20 ADD PUSH1 0x40 MLOAD SWAP1 DUP2 ADD PUSH1 0x40 MSTORE DUP1 SWAP4 SWAP3 SWAP2 SWAP1 DUP2 DUP2 MSTORE PUSH1 0x20 ADD DUP4 DUP4 DUP1 DUP3 DUP5 CALLDATACOPY PUSH1 0x0 DUP2 DUP5 ADD MSTORE PUSH1 0x1F NOT PUSH1 0x1F DUP3 ADD AND SWAP1 POP DUP1 DUP4 ADD SWAP3 POP POP POP POP POP POP POP DUP2 MSTORE PUSH1 0x20 ADD DUP5 DUP5 DUP1 DUP1 PUSH1 0x1F ADD PUSH1 0x20 DUP1 SWAP2 DIV MUL PUSH1 0x20 ADD PUSH1 0x40 MLOAD SWAP1 DUP2 ADD PUSH1 0x40 MSTORE DUP1 SWAP4 SWAP3 SWAP2 SWAP1 DUP2 DUP2 MSTORE PUSH1 0x20 ADD DUP4 DUP4 DUP1 DUP3 DUP5 CALLDATACOPY PUSH1 0x0 DUP2 DUP5 ADD MSTORE PUSH1 0x1F NOT PUSH1 0x1F DUP3 ADD AND SWAP1 POP DUP1 DUP4 ADD SWAP3 POP POP POP POP POP POP POP DUP2 MSTORE PUSH1 0x20 ADD CALLER PUSH20 0xFFFFFFFFFFFFFFFFFFFFFFFFFFFFFFFFFFFFFFFF AND DUP2 MSTORE POP SWAP1 POP PUSH1 0x3 DUP2 SWAP1 DUP1 PUSH1 0x1 DUP2 SLOAD ADD DUP1 DUP3 SSTORE DUP1 SWAP2 POP POP PUSH1 0x1 SWAP1 SUB SWAP1 PUSH1 0x0 MSTORE PUSH1 0x20 PUSH1 0x0 KECCAK256 SWAP1 PUSH1 0x3 MUL ADD PUSH1 0x0 SWAP1 SWAP2 SWAP1 SWAP2 SWAP1 SWAP2 POP PUSH1 0x0 DUP3 ADD MLOAD DUP2 PUSH1 0x0 ADD SWAP1 DUP1 MLOAD SWAP1 PUSH1 0x20 ADD SWAP1 PUSH2 0x64B SWAP3 SWAP2 SWAP1 PUSH2 0x80C JUMP JUMPDEST POP PUSH1 0x20 DUP3 ADD MLOAD DUP2 PUSH1 0x1 ADD SWAP1 DUP1 MLOAD SWAP1 PUSH1 0x20 ADD SWAP1 PUSH2 0x668 SWAP3 SWAP2 SWAP1 PUSH2 0x80C JUMP JUMPDEST POP PUSH1 0x40 DUP3 ADD MLOAD DUP2 PUSH1 0x2 ADD PUSH1 0x0 PUSH2 0x100 EXP DUP2 SLOAD DUP2 PUSH20 0xFFFFFFFFFFFFFFFFFFFFFFFFFFFFFFFFFFFFFFFF MUL NOT AND SWAP1 DUP4 PUSH20 0xFFFFFFFFFFFFFFFFFFFFFFFFFFFFFFFFFFFFFFFF AND MUL OR SWAP1 SSTORE POP POP POP PUSH32 0x74235DD15B991DA7E3C5803F71B75CFB8ADED023D34805F3A7E16961793EF823 DUP6 DUP6 DUP6 DUP6 CALLER PUSH1 0x40 MLOAD PUSH2 0x6E9 SWAP6 SWAP5 SWAP4 SWAP3 SWAP2 SWAP1 PUSH2 0xA67 JUMP JUMPDEST PUSH1 0x40 MLOAD DUP1 SWAP2 SUB SWAP1 LOG1 POP POP POP POP POP JUMP JUMPDEST PUSH1 0x1 DUP1 SLOAD PUSH2 0x705 SWAP1 PUSH2 0xBCC JUMP JUMPDEST DUP1 PUSH1 0x1F ADD PUSH1 0x20 DUP1 SWAP2 DIV MUL PUSH1 0x20 ADD PUSH1 0x40 MLOAD SWAP1 DUP2 ADD PUSH1 0x40 MSTORE DUP1 SWAP3 SWAP2 SWAP1 DUP2 DUP2 MSTORE PUSH1 0x20 ADD DUP3 DUP1 SLOAD PUSH2 0x731 SWAP1 PUSH2 0xBCC JUMP JUMPDEST DUP1 ISZERO PUSH2 0x77E JUMPI DUP1 PUSH1 0x1F LT PUSH2 0x753 JUMPI PUSH2 0x100 DUP1 DUP4 SLOAD DIV MUL DUP4 MSTORE SWAP2 PUSH1 0x20 ADD SWAP2 PUSH2 0x77E JUMP JUMPDEST DUP3 ADD SWAP2 SWAP1 PUSH1 0x0 MSTORE PUSH1 0x20 PUSH1 0x0 KECCAK256 SWAP1 JUMPDEST DUP2 SLOAD DUP2 MSTORE SWAP1 PUSH1 0x1 ADD SWAP1 PUSH1 0x20 ADD DUP1 DUP4 GT PUSH2 0x761 JUMPI DUP3 SWAP1 SUB PUSH1 0x1F AND DUP3 ADD SWAP2 JUMPDEST POP POP POP POP POP DUP2 JUMP JUMPDEST DUP3 DUP1 SLOAD PUSH2 0x792 SWAP1 PUSH2 0xBCC JUMP JUMPDEST SWAP1 PUSH1 0x0 MSTORE PUSH1 0x20 PUSH1 0x0 KECCAK256 SWAP1 PUSH1 0x1F ADD PUSH1 0x20 SWAP1 DIV DUP2 ADD SWAP3 DUP3 PUSH2 0x7B4 JUMPI PUSH1 0x0 DUP6 SSTORE PUSH2 0x7FB JUMP JUMPDEST DUP3 PUSH1 0x1F LT PUSH2 0x7CD JUMPI DUP1 CALLDATALOAD PUSH1 0xFF NOT AND DUP4 DUP1 ADD OR DUP6 SSTORE PUSH2 0x7FB JUMP JUMPDEST DUP3 DUP1 ADD PUSH1 0x1 ADD DUP6 SSTORE DUP3 ISZERO PUSH2 0x7FB JUMPI SWAP2 DUP3 ADD JUMPDEST DUP3 DUP2 GT ISZERO PUSH2 0x7FA JUMPI DUP3 CALLDATALOAD DUP3 SSTORE SWAP2 PUSH1 0x20 ADD SWAP2 SWAP1 PUSH1 0x1 ADD SWAP1 PUSH2 0x7DF JUMP JUMPDEST JUMPDEST POP SWAP1 POP PUSH2 0x808 SWAP2 SWAP1 PUSH2 0x892 JUMP JUMPDEST POP SWAP1 JUMP JUMPDEST DUP3 DUP1 SLOAD PUSH2 0x818 SWAP1 PUSH2 0xBCC JUMP JUMPDEST SWAP1 PUSH1 0x0 MSTORE PUSH1 0x20 PUSH1 0x0 KECCAK256 SWAP1 PUSH1 0x1F ADD PUSH1 0x20 SWAP1 DIV DUP2 ADD SWAP3 DUP3 PUSH2 0x83A JUMPI PUSH1 0x0 DUP6 SSTORE PUSH2 0x881 JUMP JUMPDEST DUP3 PUSH1 0x1F LT PUSH2 0x853 JUMPI DUP1 MLOAD PUSH1 0xFF NOT AND DUP4 DUP1 ADD OR DUP6 SSTORE PUSH2 0x881 JUMP JUMPDEST DUP3 DUP1 ADD PUSH1 0x1 ADD DUP6 SSTORE DUP3 ISZERO PUSH2 0x881 JUMPI SWAP2 DUP3 ADD JUMPDEST DUP3 DUP2 GT ISZERO PUSH2 0x880 JUMPI DUP3 MLOAD DUP3 SSTORE SWAP2 PUSH1 0x20 ADD SWAP2 SWAP1 PUSH1 0x1 ADD SWAP1 PUSH2 0x865 JUMP JUMPDEST JUMPDEST POP SWAP1 POP PUSH2 0x88E SWAP2 SWAP1 PUSH2 0x892 JUMP JUMPDEST POP SWAP1 JUMP JUMPDEST JUMPDEST DUP1 DUP3 GT ISZERO PUSH2 0x8AB JUMPI PUSH1 0x0 DUP2 PUSH1 0x0 SWAP1 SSTORE POP PUSH1 0x1 ADD PUSH2 0x893 JUMP JUMPDEST POP SWAP1 JUMP JUMPDEST PUSH1 0x0 DUP1 DUP4 PUSH1 0x1F DUP5 ADD SLT PUSH2 0x8C5 JUMPI PUSH2 0x8C4 PUSH2 0xC32 JUMP JUMPDEST JUMPDEST DUP3 CALLDATALOAD SWAP1 POP PUSH8 0xFFFFFFFFFFFFFFFF DUP2 GT ISZERO PUSH2 0x8E2 JUMPI PUSH2 0x8E1 PUSH2 0xC2D JUMP JUMPDEST JUMPDEST PUSH1 0x20 DUP4 ADD SWAP2 POP DUP4 PUSH1 0x1 DUP3 MUL DUP4 ADD GT ISZERO PUSH2 0x8FE JUMPI PUSH2 0x8FD PUSH2 0xC37 JUMP JUMPDEST JUMPDEST SWAP3 POP SWAP3 SWAP1 POP JUMP JUMPDEST PUSH1 0x0 DUP2 CALLDATALOAD SWAP1 POP PUSH2 0x914 DUP2 PUSH2 0xC57 JUMP JUMPDEST SWAP3 SWAP2 POP POP JUMP JUMPDEST PUSH1 0x0 DUP1 PUSH1 0x0 DUP1 PUSH1 0x40 DUP6 DUP8 SUB SLT ISZERO PUSH2 0x934 JUMPI PUSH2 0x933 PUSH2 0xC41 JUMP JUMPDEST JUMPDEST PUSH1 0x0 DUP6 ADD CALLDATALOAD PUSH8 0xFFFFFFFFFFFFFFFF DUP2 GT ISZERO PUSH2 0x952 JUMPI PUSH2 0x951 PUSH2 0xC3C JUMP JUMPDEST JUMPDEST PUSH2 0x95E DUP8 DUP3 DUP9 ADD PUSH2 0x8AF JUMP JUMPDEST SWAP5 POP SWAP5 POP POP PUSH1 0x20 DUP6 ADD CALLDATALOAD PUSH8 0xFFFFFFFFFFFFFFFF DUP2 GT ISZERO PUSH2 0x981 JUMPI PUSH2 0x980 PUSH2 0xC3C JUMP JUMPDEST JUMPDEST PUSH2 0x98D DUP8 DUP3 DUP9 ADD PUSH2 0x8AF JUMP JUMPDEST SWAP3 POP SWAP3 POP POP SWAP3 SWAP6 SWAP2 SWAP5 POP SWAP3 POP JUMP JUMPDEST PUSH1 0x0 PUSH1 0x20 DUP3 DUP5 SUB SLT ISZERO PUSH2 0x9B1 JUMPI PUSH2 0x9B0 PUSH2 0xC41 JUMP JUMPDEST JUMPDEST PUSH1 0x0 PUSH2 0x9BF DUP5 DUP3 DUP6 ADD PUSH2 0x905 JUMP JUMPDEST SWAP2 POP POP SWAP3 SWAP2 POP POP JUMP JUMPDEST PUSH2 0x9D1 DUP2 PUSH2 0xB4E JUMP JUMPDEST DUP3 MSTORE POP POP JUMP JUMPDEST PUSH1 0x0 PUSH2 0x9E3 DUP4 DUP6 PUSH2 0xB3D JUMP JUMPDEST SWAP4 POP PUSH2 0x9F0 DUP4 DUP6 DUP5 PUSH2 0xB8A JUMP JUMPDEST PUSH2 0x9F9 DUP4 PUSH2 0xC46 JUMP JUMPDEST DUP5 ADD SWAP1 POP SWAP4 SWAP3 POP POP POP JUMP JUMPDEST PUSH1 0x0 PUSH2 0xA0F DUP3 PUSH2 0xB32 JUMP JUMPDEST PUSH2 0xA19 DUP2 DUP6 PUSH2 0xB3D JUMP JUMPDEST SWAP4 POP PUSH2 0xA29 DUP2 DUP6 PUSH1 0x20 DUP7 ADD PUSH2 0xB99 JUMP JUMPDEST PUSH2 0xA32 DUP2 PUSH2 0xC46 JUMP JUMPDEST DUP5 ADD SWAP2 POP POP SWAP3 SWAP2 POP POP JUMP JUMPDEST PUSH2 0xA46 DUP2 PUSH2 0xB80 JUMP JUMPDEST DUP3 MSTORE POP POP JUMP JUMPDEST PUSH1 0x0 PUSH1 0x20 DUP3 ADD SWAP1 POP PUSH2 0xA61 PUSH1 0x0 DUP4 ADD DUP5 PUSH2 0x9C8 JUMP JUMPDEST SWAP3 SWAP2 POP POP JUMP JUMPDEST PUSH1 0x0 PUSH1 0x60 DUP3 ADD SWAP1 POP DUP2 DUP2 SUB PUSH1 0x0 DUP4 ADD MSTORE PUSH2 0xA82 DUP2 DUP8 DUP10 PUSH2 0x9D7 JUMP JUMPDEST SWAP1 POP DUP2 DUP2 SUB PUSH1 0x20 DUP4 ADD MSTORE PUSH2 0xA97 DUP2 DUP6 DUP8 PUSH2 0x9D7 JUMP JUMPDEST SWAP1 POP PUSH2 0xAA6 PUSH1 0x40 DUP4 ADD DUP5 PUSH2 0x9C8 JUMP JUMPDEST SWAP7 SWAP6 POP POP POP POP POP POP JUMP JUMPDEST PUSH1 0x0 PUSH1 0x20 DUP3 ADD SWAP1 POP DUP2 DUP2 SUB PUSH1 0x0 DUP4 ADD MSTORE PUSH2 0xACA DUP2 DUP5 PUSH2 0xA04 JUMP JUMPDEST SWAP1 POP SWAP3 SWAP2 POP POP JUMP JUMPDEST PUSH1 0x0 PUSH1 0x60 DUP3 ADD SWAP1 POP DUP2 DUP2 SUB PUSH1 0x0 DUP4 ADD MSTORE PUSH2 0xAEC DUP2 DUP7 PUSH2 0xA04 JUMP JUMPDEST SWAP1 POP DUP2 DUP2 SUB PUSH1 0x20 DUP4 ADD MSTORE PUSH2 0xB00 DUP2 DUP6 PUSH2 0xA04 JUMP JUMPDEST SWAP1 POP PUSH2 0xB0F PUSH1 0x40 DUP4 ADD DUP5 PUSH2 0x9C8 JUMP JUMPDEST SWAP5 SWAP4 POP POP POP POP JUMP JUMPDEST PUSH1 0x0 PUSH1 0x20 DUP3 ADD SWAP1 POP PUSH2 0xB2C PUSH1 0x0 DUP4 ADD DUP5 PUSH2 0xA3D JUMP JUMPDEST SWAP3 SWAP2 POP POP JUMP JUMPDEST PUSH1 0x0 DUP2 MLOAD SWAP1 POP SWAP2 SWAP1 POP JUMP JUMPDEST PUSH1 0x0 DUP3 DUP3 MSTORE PUSH1 0x20 DUP3 ADD SWAP1 POP SWAP3 SWAP2 POP POP JUMP JUMPDEST PUSH1 0x0 PUSH2 0xB59 DUP3 PUSH2 0xB60 JUMP JUMPDEST SWAP1 POP SWAP2 SWAP1 POP JUMP JUMPDEST PUSH1 0x0 PUSH20 0xFFFFFFFFFFFFFFFFFFFFFFFFFFFFFFFFFFFFFFFF DUP3 AND SWAP1 POP SWAP2 SWAP1 POP JUMP JUMPDEST PUSH1 0x0 DUP2 SWAP1 POP SWAP2 SWAP1 POP JUMP JUMPDEST DUP3 DUP2 DUP4 CALLDATACOPY PUSH1 0x0 DUP4 DUP4 ADD MSTORE POP POP POP JUMP JUMPDEST PUSH1 0x0 JUMPDEST DUP4 DUP2 LT ISZERO PUSH2 0xBB7 JUMPI DUP1 DUP3 ADD MLOAD DUP2 DUP5 ADD MSTORE PUSH1 0x20 DUP2 ADD SWAP1 POP PUSH2 0xB9C JUMP JUMPDEST DUP4 DUP2 GT ISZERO PUSH2 0xBC6 JUMPI PUSH1 0x0 DUP5 DUP5 ADD MSTORE JUMPDEST POP POP POP POP JUMP JUMPDEST PUSH1 0x0 PUSH1 0x2 DUP3 DIV SWAP1 POP PUSH1 0x1 DUP3 AND DUP1 PUSH2 0xBE4 JUMPI PUSH1 0x7F DUP3 AND SWAP2 POP JUMPDEST PUSH1 0x20 DUP3 LT DUP2 EQ ISZERO PUSH2 0xBF8 JUMPI PUSH2 0xBF7 PUSH2 0xBFE JUMP JUMPDEST JUMPDEST POP SWAP2 SWAP1 POP JUMP JUMPDEST PUSH32 0x4E487B7100000000000000000000000000000000000000000000000000000000 PUSH1 0x0 MSTORE PUSH1 0x22 PUSH1 0x4 MSTORE PUSH1 0x24 PUSH1 0x0 REVERT JUMPDEST PUSH1 0x0 DUP1 REVERT JUMPDEST PUSH1 0x0 DUP1 REVERT JUMPDEST PUSH1 0x0 DUP1 REVERT JUMPDEST PUSH1 0x0 DUP1 REVERT JUMPDEST PUSH1 0x0 DUP1 REVERT JUMPDEST PUSH1 0x0 PUSH1 0x1F NOT PUSH1 0x1F DUP4 ADD AND SWAP1 POP SWAP2 SWAP1 POP JUMP JUMPDEST PUSH2 0xC60 DUP2 PUSH2 0xB80 JUMP JUMPDEST DUP2 EQ PUSH2 0xC6B JUMPI PUSH1 0x0 DUP1 REVERT JUMPDEST POP JUMP INVALID LOG2 PUSH5 0x6970667358 0x22 SLT KECCAK256 0xCA BASEFEE 0xB5 0xDB CALLCODE DUP5 0xE1 STOP KECCAK256 0x23 PUSH26 0x350641ED0374DEF2E2149B1B3BFB2521194D8A824564736F6C63 NUMBER STOP ADDMOD SMOD STOP CALLER "},"gasEstimates":{"creation":{"codeDepositCost":"647200","executionCost":"infinite","totalCost":"infinite"},"external":{"creator()":"2515","getBillboard()":"infinite","getHistoryLength()":"2468","history(uint256)":"infinite","image()":"infinite","message()":"infinite","setBillboard(string,string)":"infinite"}},"methodIdentifiers":{"creator()":"02d05d3f","getBillboard()":"9850fedb","getHistoryLength()":"5478f468","history(uint256)":"a7a38f0b","image()":"f3ccaac0","message()":"e21f37ce","setBillboard(string,string)":"ea08629b"}},"storageLayout":{"storage":[{"astId":10,"contract":"InternetBillboard.sol:InternetBillboard","label":"message","offset":0,"slot":"0","type":"t_string_storage"},{"astId":12,"contract":"InternetBillboard.sol:InternetBillboard","label":"image","offset":0,"slot":"1","type":"t_string_storage"},{"astId":14,"contract":"InternetBillboard.sol:InternetBillboard","label":"creator","offset":0,"slot":"2","type":"t_address"},{"astId":18,"contract":"InternetBillboard.sol:InternetBillboard","label":"history","offset":0,"slot":"3","type":"t_array(t_struct(Billboard)8_storage)dyn_storage"}],"types":{"t_address":{"encoding":"inplace","label":"address","numberOfBytes":"20"},"t_array(t_struct(Billboard)8_storage)dyn_storage":{"base":"t_struct(Billboard)8_storage","encoding":"dynamic_array","label":"struct InternetBillboard.Billboard[]","numberOfBytes":"32"},"t_string_storage":{"encoding":"bytes","label":"string","numberOfBytes":"32"},"t_struct(Billboard)8_storage":{"encoding":"inplace","label":"struct InternetBillboard.Billboard","members":[{"astId":3,"contract":"InternetBillboard.sol:InternetBillboard","label":"message","offset":0,"slot":"0","type":"t_string_storage"},{"astId":5,"contract":"InternetBillboard.sol:InternetBillboard","label":"image","offset":0,"slot":"1","type":"t_string_storage"},{"astId":7,"contract":"InternetBillboard.sol:InternetBillboard","label":"creator","offset":0,"slot":"2","type":"t_address"}],"numberOfBytes":"96"}}},"userdoc":{"kind":"user","methods":{},"version":1}}